:100000000C9484340C94A3340C94A3340C94A33433
:100010000C94A3340C94B4380C9418390C947C3997
:100020000C948F390C94A3340C94E6370C94A334BD
:100030000C94A3340C94A3340C94A3340C94A334E4
:100040000C94A3340C94A3340C94A3340C94A334D4
:100050000C94A3340C94A3340C94A3340C94A334C4
:100060000C94A3340C94A3340C94A3340C94A334B4
:100070000C94A3340C94A3340C94A3340C94A334A4
:100080000C94A3340C94A3340C94A3347F7F7F7F0F
:100090007F7F7F7F7F7F7F7F7F7F7F7F7F7F7F7F70
:1000A0007F7F7F7F7F7F070807047F7F7F7F7F7F42
:1000B000077F7F7F087F057F047F7F7F7F7F7F7F34
:1000C0000F7F0E7F067F0D7F0C7F7F7F7F7F1F7FDF
:1000D000177F167F157F1C7F147F7F7F7F7F007FB8
:1000E000277F1E7F257F1D7F247F7F7F7F7F187F57
:1000F000207F217F267F227F237F7F7F7F7F7F7FDF
:10010000107F197F1A7F1B7F137F7F7F7F7F0818E7
:10011000117F127F0A7F037F0B7F7F7F7F7F081015
:10012000081F097F080F027F08197F7F7F7F7F7F6D
:1001300008027F7F081308097F7F7F7F070C087FF5
:10014000017F080B7F7F08077F7F7F7F7F7F080706
:100150007F7F7F7F7F7F7F7F07037F7F7F7F047F1E
:100160007F7F1C7F1B7F7F7F7F7F7F7F037F0810C8
:100170000C7F247F237F137F07007F7F7F7F081101
:10018000147F081908200B7F7F7F7F7F7F7F7F7F11
:100190007F7F7F7F7F7F7F7F7F7F7F7F7F7F081550
:1001A0007F7F072408057F7F7F7F7F7F080D070BF8
:1001B00007237F7F0713071B07007F7F7F7F7F7FDA
:1001C000071C7F7F7F7F07147F7F7F7FFF1F627FFA
:1001D000C23C006088FFFFA0089001324006C8C6FC
:1001E0000019FF03050A4414812241CF068AF32037
:1001F0000365E5A00C94EC9AFF3FED81325006CAEE
:10020000E6541928E0C069F399C688CF0098D364F2
:10021000800C23B97FFB0015E0025C80F00B7001BD
:100220002EF00468FC2AA002F4CFF350F3C005A816
:1002300030E6A0D9C9B312E0F054800AD0F62A40C3
:100240008BE05493D374D3B8CE0017B960F813166B
:1002500040FF10C6024067A0EA404008C60120DA0D
:1002600004802CE008A6E4D8F9030486FF98FF6018
:10027000FC203C98D97A8094A0FC8B02280F05A41E
:100280001567A9CFA02302FCD0060A40012A9BE0F3
:100290001914CD52005174B8FC02F781180336E3EB
:1002A00028A7B4B4FA08113421F5B20D21929504AF
:1002B0008907C0080C0E2109E20309147ADD821DAA
:1002C000223BF890D8FEC7C0DF9A6068D3DB842059
:1002D000FDE6844A26C0323B0DF2BE7F58C37EFF46
:1002E000376DFFA6F9201680CB30E89068532CD9E3
:1002F00018106EB3B4FDF1C1EDB5445AEE2218A248
:10030000487466377E68F9FFDDC08881180B653D4B
:10031000E11002448C844CB24601B7796FF3B8F80F
:100320004253F4EF1EC803FDB61CEA4BC06CDD0F50
:1003300008215966075F7F9628B3ADC31003EBF61B
:100340003054BD601B0C0896660653F3E8FA73FA46
:1003500016C2467686B3BFB2EC2362222532B3566C
:1003600019F09E989AD053434DF7216904FE620D0F
:10037000A26034D93D106DE6BF2DEB980D9BFBBC00
:10038000FE43EC39DB820197FB2B0C6377163D5E55
:10039000DF78B5FD59CB109F1ADA030119E9AB6E6E
:1003A000041BF79870F808723A126DFC4856310A2F
:1003B0004FB692800815FB94ABFB69EC1002087BEA
:1003C00013FB32A06BF6DB12B2B3160466F33C9655
:1003D0004C299E98F4302016C02614DEC31C25B488
:1003E000C0F58B3C84FE987FBBF550FE045FBFEAEE
:1003F000D298049DCA58443059ED982BFDEEED0477
:100400002058E5A3242FC0425AE80B2C1322DF808A
:1004100087C5FD9801726FFCE47920DAEF42F202A1
:1004200034F46C40DC0F02C4B3067F3201637E9863
:10043000D9B8FFBF02B5300ECA8DA3880CCFC7B99B
:10044000670D7AA6FAD0F3DF96303089C6831D791E
:10045000F38EF5FEFE9872040FFDEE97FF044D7EBD
:1004600001D945AAB309F5C723ED7B204284DE9C60
:100470007A6638FFC33224C022986BCDCA1220A7F7
:100480006CFE21A529128B766416B830DF5690E0F9
:10049000BE980B1EC02F26F1A5F3BB04D79818AC4D
:1004A000F320D5BB128B78983737FAA0FAABD8C0B7
:1004B000ED30F830E354BC4BC2FE6F3028FE713291
:1004C000C10898AD038F466E19208058A60A57CCF4
:1004D00030B8FA0A44F69801022550AFBA6986246A
:1004E00001FDFD20E866B40CD57F039C19B50669B3
:1004F000192DA2CA0CB4FFF5B92089A04630337D6E
:10050000060262CA190CF1DB66DEFD60CA2ED13725
:1005100029EA003D06F41063C0B31AFA9808523372
:10052000FBFAF6DCD8282D40BFED1202FD5A30B19F
:1005300001DF374BF7948C84115E6394F86087E396
:10054000C8201834EC24A00B4621CAB02CBB79FF7C
:100550000269FB7F2C82B3F1FFC001FB8003F07FB7
:100560004B980CF3BC98D12F3C63FDB16C05C80FC0
:10057000E0B91BA8FDD666C0FA1546C8C42419B553
:1005800080FDD340B7D8D3DFF77FE3F904FA2DBD60
:1005900096B3808B7A9146B34101D47EC7BD984E05
:1005A000CF8805D578FC204CD516D83B124FAF7FAD
:1005B000DC2AC076B4605AF302ADB39056C405226B
:1005C00019BF4A6E01FE07F8FCFFB3BAB830DFED81
:1005D000D44521AB8EF030A689E428F8F45320ED01
:1005E000530880CEE734C231BAEC94C8C6E41DCDBE
:1005F000DF68412E0FFF78F546D42098360BBC30CB
:10060000656915BF98E5B7AD4B1057A1843D196AD0
:10061000F880910FA0DA18018368B369FBC3114514
:10062000DB91ABC24A01630766BB4A880231B9CA93
:10063000E0AE017D6A34201ED003AFDF1CCB300258
:1006400043F366CC4001C637960E73F707E04EFBC6
:10065000D0F804E7A0012018B51063660804BF2D88
:100660001D8C287DFF0868894C9171FDA163B3EE54
:100670006FB5E3F6D1F9C8D82022E9B7BB190482D7
:100680001A0163D1FA3BFE9850220243D7F8EA8A56
:1006900040A92923BF0AEDA9CC666419F57A01CDDA
:1006A000AC14F8EBEB8239DA03667A5340C78F5EFD
:1006B0006FDDB8F94BA2A0237C96C863DE5A5FBFFA
:1006C00063A26619DBAB61ED387AFE069420D7A6EB
:1006D000BFFF0AFFDACC1379BA8DEDEAE9DE01E556
:1006E0006F9D7143FA177447CAED0809A317E21208
:1006F000F6BD432541CB66881E2619699804E5B4EA
:10070000816798E1F8BF603DC82016C0A7E8D92CE2
:100710009DC8C8C86C21CD2E1EFF9C731908F969AD
:10072000FFED20081003653B260362409766901C8E
:10073000A6A36327AFB7890C887330F8805C779BDA
:1007400024AB586F57984296E5ED316034FCC26C8B
:10075000CAC88C2F42D4FDAF491D98709A60AF680B
:100760004E906DB3C80AB984F2926FB6963DEA987E
:10077000A05FB420A0AF2C02ADBF22ACB1CF589087
:1007800080F85DA6DE8DF9E0E4D831DB538464C8DF
:1007900006BFBA6669C08F7898AFB67794FE8401B9
:1007A000B6BF58404F9FC5A6A9572C8E0CFCB61259
:1007B0003785F598113AB3FD04083BAA566223AB7E
:1007C000D0264FDF2B11F67210AD6658497CAFFF73
:1007D0008A407EFB03F4201EC8DF28C86C6CA31A75
:1007E00028F39899400368355E9819C9A0C4666BD0
:1007F000E39847067A2301CCD3A21FF3989BFBD83A
:10080000FE96FA2646657B90A6EDAD4044E6B3130E
:10081000FA9804B93018E7FC20905340C48E02D7F0
:10082000FE7F2481440200CBDC98214104D8F310E0
:10083000CBB805025BED667230FFFE6BECC0204D5D
:10084000997649D493C7F51504713F97CD30D0FB05
:10085000E9F6E2C06DD581E7EBA5FB40BE8E2B1912
:10086000079DEA10060293CC3060F8076E43D06C07
:10087000C151BE5A91102D59218C9ED35ED41908B6
:10088000C52CE79E6B3093FE6B1723B5F68008935B
:100890008DC0224632E60810E92138DEB020D64B62
:1008A00008017F374352FF281A11EE3F30F97F903D
:1008B00085FBDA21FAF2301ED770491C3203044658
:1008C000EF0098BC985A34EAF403C419660B08D3B5
:1008D0006FE9980F196FF4CC7F6FAB1506B819D775
:1008E000FBCC800546C7D802C4046632DC66084AE1
:1008F0006E19CB83F963FFD958B504DE491112EFA5
:100900006B272220A516197124A26E02C43F32481B
:10091000775B39FE0584B830B462C68CFF6F4CAF8C
:10092000FE7327F0FB20CF802B9DCE58332480F31D
:10093000B37F322862EAD32460D3C0FE304876FF0A
:1009400098FF2834666718D1E33990FF0285D537C0
:10095000088001CF30C49C6BFFE0AB88F823A0CCAB
:10096000F14493131A1666F3BFB278F3177ECCFAEC
:10097000F53580E6A4162FFF0837A4FB634CB57B42
:100980000093C3BFDDCC41FD32B8FF8257D8322679
:1009900098B3D66CA0103C5B664075E085AB6A04EA
:1009A0009685FF191B7BADC010CEF4598208A66650
:1009B00037B6033BF6F0775664D8764FEB8F083F97
:1009C000B6DE586F287D219D2B0978898288EC023C
:1009D00001954AC920B3A05B1420F1247A0D05C00B
:1009E000125DF750D6533BD272E034A03B058D83A5
:1009F0005BAFACF8FF4720684B0E166EE65052E92D
:100A0000296A8876F3305024BA7F9A09B763860A38
:100A1000AF3EA4F69FA0FA8DBAFA4F96E82049851A
:100A20008E9964FFF5D968F8FF446FD7491843F0F1
:100A30006677FDCCAB18A5FD6206D31BF32998FDA4
:100A40006152B940C756B3F9A62A084EFF88FF1075
:100A5000FFB0B8436CB3ECFB7FB6D040790D8B325E
:100A600004D8FDF4C617651098E74FFDF7F8FFDCD2
:100A70009461C7ECC880B5F3FEB1198216ECE3FAB5
:100A8000BF3635D50840AAB420DDB1086112B3FBEA
:100A9000C57EAAC3260CD8FBC47E54C36FD8C3300E
:100AA00043D6B113B61510FE11757F87DD64B0040F
:100AB000CBECCCED31AF932E1FE6ED10FDDFC18501
:100AC000B0EC1DFF5B0DFFFD9D820FECCCFE7FF4B3
:100AD0000F083DB440318DDFDAA2086D498227321C
:100AE00079FCF98ACB16A2A12FC67F3FFB7F70FF4E
:100AF0007F0966E98FFD5F00D89E485866DA78F86E
:100B0000AD09304B694D85167041187B3790FA61FD
:100B100042D404C7BDE6D8B5FA5926089E4D765B87
:100B2000F17ECE0CC57F5E0265EDAD32D568F9F180
:100B3000F4270836FFB8B940DC026126B60004820B
:100B40004FED57803CE50B7188AAB50258CE08DFFF
:100B50002D2C08416BA2F621D7D272E098FCC0413F
:100B6000A08C026D9D1850AAA02E604DF929D920A5
:100B7000E2CDE6CE5A1A2085B372B4260552EEE5D0
:100B800048401506F0FD9DC608900B78F767A8C889
:100B900010F8350818B6C7F7900110FFED0A409914
:100BA00043FB8489C01C2A43F27B82EF0660FE5A15
:100BB0008401018747B318BBD8B3B2C1C55DD3BBAD
:100BC0004CA0FD6FF126184FC583F6E1DA85AF82A0
:100BD0006F6884401EEBC660FA30C7398380614E6F
:100BE000B69E24FB86D1087BDDD818FF227231180F
:100BF000F5B9FF99C57EEBD0052FB6BD20A6E23C26
:100C000090BF0888CAFA6D1604542D01072CC7BE80
:100C100084ADD7EC464C0CFE32A23796FA6117ED44
:100C2000E303BC9EC7330338B7F8301D54CBC80D5F
:100C3000F5559069F97F0AFDA206F9EFB510088015
:100C40007333C020B810F0BEC7C297A348FB20661C
:100C500070A71676DBF7FAC80CC205B3F98E75C714
:100C6000A04116BEB3676CE4D947034DEED0F9E658
:100C7000836F57D151985C9BD6B279149FEC13E9DE
:100C8000F9EF2EA4105BD10A8DCB8B4117F322C74D
:100C9000A4B1844E20419E52B544FDE18417EAEC94
:100CA0003231FDDD1C10CB6B0C5D334DD67202ABC7
:100CB0003A08356510E488FC60AB7684B4B3B6605E
:100CC000FAE323F3D3112F67DA13209FDDDBDAC0B9
:100CD00051E8E939F3E8FBF8B4B059F10B0DCE5007
:100CE00010E0F3AC31F2B2E33A657101E1F3846BE9
:100CF000ECC30906C6F4FE09A933FD5BB21147F443
:100D0000853111678EB38606C1B31723FF60220CAD
:100D10008285300206B8C2D5F1C6F3FBB0FDE041D2
:100D20001CDA80C0036F9DE08149E61EF3B614D83B
:100D30000C1C83193CA0DC07F0D387790FF2E0018B
:100D40003C88F3D4437CB93C0818FCB5135E6603B9
:100D5000066FD725FD7F9E1925ED667DD90996E0A2
:100D6000D34BF3407E9D80F3A8FB1AED7A1183C824
:100D700077B31805A37F130132B102F6B3C044D58F
:100D8000B38938F398FF0D4DB40D9D1C5A1A400AD3
:100D9000ECAA8D20536D7D34485AE0298808DA90FA
:100DA0006DFB48FB13D8C9F603B92566F66806FC47
:100DB000CBF480E410EAFDFF1A90FE402C72FE3F57
:100DC00017D49807B0676AA604D3C098D9C05E8BC1
:100DD00078F335EE9810FE28D9B303B704E6CC5863
:100DE0000490662DD8966F7804EBFCC875E0C8EEC9
:100DF00029A0017EF3D1FD8005B0D1BD8872DF0945
:100E0000D1B308B443F5AB10897F7FC1108158235B
:100E10003AF64C02F68B46C194A713E83EB931046A
:100E2000B1FBBDDF0069E798F9D2B78E98FB0F647C
:100E3000053C881D66E3A5E0C45E6B1526F390F3C0
:100E4000405DB8E5F8E08BB8F0FB8445559DEB9824
:100E500018FD9802467929E4E5E06EF36EC635F395
:100E600042E64BBC59B78B1DB319A091C6F938B3F4
:100E7000D980106CB309320EB8FA108FCE07650214
:100E8000647330432081044CB1222E763004092053
:100E9000BF68B941CA206FB511C54AC63029A6142A
:100EA0002C662CBECF3798FA0FDFB398FB406A232D
:100EB0007A1360D8DCEEAF1731BB1F6D008801815B
:100EC000652F2F34B2D63930D8D9FE2CD96779CDD9
:100ED000DEDD2CC947B71790F9989F97A1F330CA68
:100EE000F9A584C846CDE20B042DE3513D8D10CF0A
:100EF0002302F4829130B11207061126C02F305F11
:100F00008204FB7F2252A9DDE9F07030DBF707F99C
:100F100098A7EE32160BF3A0B1011E4C300CD3F1A2
:100F20000A1E3F88D49888F364733060FAA58CC099
:100F3000069BED980810796B8AFAE5105A73E5BFA5
:100F4000A16693CC30F1F92622B3BB58B4DE2CD382
:100F5000B305DBB3380165B348B79B4BF33050FAA8
:100F60006C815C3D6E74AF5ABB2ADB98240610F48A
:100F700098200D1008A1CFFEF1CD1048F703FF4CCB
:100F80003BF32CF863DA2B36161825964EE9ED4222
:100F9000C878B137EDD793EDFD50FDBF99ED1DFF3A
:100FA0007184763784252188FA9808BA81F3BE7C4B
:100FB00090C8F091C63BF338F82075660291C230B4
:100FC000F3F485906620669D80C822029794C81924
:100FD000685CF683F98049ABD9437CA5C819883B86
:100FE000F48201B011FF321246C2BF18D7988CFFAD
:100FF0007FC22459BB69CECA0931FFBCA5DF8D3041
:10100000F3C8D0778E98931C10C4BD98302EE06F33
:101010004E0F04E2235AC68078982D68FCFEF267D2
:10102000F23083C5F97D206DEBE50CD666404F3676
:10103000307BFAC0B32C9186B398209E462C840155
:1010400038C47BB102ED06E048CFB3CDC840714350
:10105000ECB3D0FD06BC30EC4020018E0E3095E0A4
:101060000DFBAC08102D65EF6722802FF7EB2C816C
:10107000402FC802CC9BE7C8FF5F30E99CFF68CADD
:101080004282D8F3CA76C710B8F9DC305EE56FCD7E
:10109000301884A7185D964F607E8020066AF51888
:1010A000BF44CFB31C190928FF66FC6F6425CE48E6
:1010B0009EFD648002C43AB1BC98DF8734DE121111
:1010C0007160AF3D30BAFD8085718DCB522327D43E
:1010D0009804F3A58C662289EBAF42987F170B3BEF
:1010E000F740C6C05DE7608045E690FA5E986BCB3E
:1010F00030022B26C8F30F6CB61C4F36C831470C94
:101100003090F0A369B0F3C808ED68F984F97D0167
:10111000647A9808C6F3C84066F23083D79B3001E2
:10112000FE7E5930135C3071B37AC504C4D7B3085E
:10113000AEB3806EF347C2FB766E5B30FF72BB408E
:10114000CAD5A9498BF030076963FE987288810679
:101150001082D5CC208384785E98623EFE631C307A
:1011600001C7B481E777049A0D90D3F60888F86038
:1011700051D6AAF3048C9E5737C80811EA4FE523CD
:10118000EB98C05F5398409AF0FA6ED9B5233D10A2
:10119000E32373381011B1090F379869504404F3F1
:1011A000428581017FD6CCFE320AB2FC8005C9C8D7
:1011B000AF8D12C29880EE2C30B17B1EFB1726C17A
:1011C00040589AF64C0476F316C2289F973EB930E1
:1011D0001120FFBCA5DB8C309F3F988C3057D698F0
:1011E000F04E6EC801E3304CCDC80CFCF9BF6C7EEC
:1011F0008324E0300DF830FF5998421C30EC10D9B0
:10120000FF5376E303BC30632BB34E95F346C030F7
:101210002F10F41138212DFBF55320642E749A1DE4
:10122000F3DE85049FCB65805D3BB8D09C109DF4B8
:1012300083D6B490F79810C8FD64789806579C9FA1
:10124000935F04625E98B502F29834D9CBC067CC44
:10125000C0FA606E8C6FE598A7307AE060CFF1320B
:10126000E0667B9820882FF3EB61FD9808DA78FE22
:101270009A1AED83AAA744E05748EBC67D9884BB31
:1012800002A2B4B62FC6F6C630FA84D9C8DB0B0466
:10129000F0301B04B5AFC0B340B830BDB2B00326C8
:1012A000C10218E54C8C7E32063CC12D1808FEF8B0
:1012B000FB49301228F8272CC8DE6C306401FF1F70
:1012C00098D33DA007F0B620F298CABB06F3F2C649
:1012D000DF49B8FD88625EE5BC08D6CFF29832E0FF
:1012E0007D98086BE6D8DE98D820689FAF98880173
:1012F00089415C306309B38CFDD938124EB3024882
:10130000FEFF3F9856C504FF7FD35208F301A01992
:10131000FF94633C5F9A84D8D8FF7F2301022BC6D9
:10132000D9B2F8F9F3699283E8C40C2C50BD8D87CB
:10133000FCA5FEA267C11ED2B030FC60D7B6DB8030
:10134000478C92469017ED499E9F7003B530D2CCE2
:101350001A3743C051CC0309CCD348F806579A98A2
:10136000B62818418BB3043B688DA2BC01DFB9CF0E
:1013700010816640C66D0233C853BFFEDEA5C002B1
:101380001810BC98D7AB64CEB8C9C8DDC4B04067EC
:1013900075957230C0D7C09899E010BE4D6AA260B2
:1013A000279C51E669FC7FB5A5F080E6A54777B19B
:1013B0001ED07B986080B63CE1FA846C665C30BFDE
:1013C000F1C498E0377A98319D76017820F9C8BF4A
:1013D00028431536F91F9F6FC77DAD798056B350EE
:1013E000C6B3571230E010D3EEC22666E623F8CA21
:1013F00037B3CDC820DFA25DD16FC660C6116AB316
:1014000002E7B3408060699CC8D0F90634FF659854
:10141000B3FBFFF8FB765BF87AC301CE33F38CD1D4
:101420004CD30B66D3D8FF030487FF98FF2861FBDA
:10143000664020B40A6CD390FD53ACCDF3FF37C5A2
:1014400090BE88B6D1E8F8DF9B7806079E93F363D9
:10145000E22B59DFA4C4C867ABB3F94D9E4C51933E
:10146000866FB1AA23BE739120F38E596CD388FD89
:10147000107E32DBFBCCD8FD1DF39B1F59FF901F64
:10148000B1D8C0FB90DFB089CDFF1861779B988BF6
:1014900098212CF6B2C95A5B99B3B9DD96484B57DF
:1014A000C1506127768CE0FD182D3240D6C0106304
:1014B00061C8FD79EC8223FF88FF652533088A8E99
:1014C000FE3E01B6D83363223BFBE280FB7245202F
:1014D0005FB2CDDD570482408A769681D8C4CEEEC5
:1014E0008420FA07280805BC14E70108ED88C00C21
:1014F000DAE201283378FFD104E5100134D27FDF2E
:101500000A04BC24BF3B7F9BC99AFEB6A7D3AC6735
:10151000B24E56EE81986297666F81E229E7CE025D
:1015200004447A1313D98068BCFEB78CF1C5798066
:10153000C6793DC6C677B28280F9F8CFF3966FB10F
:10154000CC5E5AD54099BFFC4FD860F96FD665790B
:10155000FF8EEE4901C2DDAF49B3CCFA93DDF380D3
:101560006162B3B0FEB1B1F3C7097724FFB3203E87
:10157000A1C392ADDB963BAD3CDB1B10400B9BA7A0
:10158000E8FCCCC433FD38809CF3D958FD9F8D67AF
:1015900098AAFE9965797B624BD6025ED8F0144812
:1015A00064B6C0F54BFE87DC3B626666187D389FEB
:1015B000FE02A8FD08C11C67B4AFC1611980604973
:1015C000AC6640DEB1F5FE596701C5E6C6CA3F9676
:1015D000413FD61CE6FF187A9801C5FBEE98B3FC94
:1015E00016DB02AB6E0143DE0B1BA618FD13EBB13D
:1015F00073F91F4C0580B14076ADD330FA9A9A63E7
:10160000FCC94A4A203CE0C1DD3D107BE6A8F962F6
:101610007E9CDA100A186A59CD7520FD947263EB2E
:1016200065405179C00DE6DA67B21B59FADFCF3752
:10163000BF580D0CC1AEE1AB999FA9D170FF62EB11
:101640009E102CD7F6DA4008C5BFC80444D18F5F7E
:1016500012B282589DA4FA68EBF3EA73016FCDA32E
:1016600082E9108BFE15088EB359AE413F1EAD3195
:101670007062A9060156CA3FE435AB38B29E3728DE
:10168000850CB1204FCD9104C2187DFBDFF9B8362F
:10169000B62BCBE841AF85A2E8568220DFF6A181C8
:1016A00002FF89C5209505DEE6FD7A1803072202B0
:1016B00081376E062F71034CA44A646074F79D094C
:1016C000CBB8FDC01A59F930633D63B50416CFC7D6
:1016D00076AEA248FA7FFB6B283CD9CB02B1404FD3
:1016E0004DAD409C02E7E09CF3EA0D1DFCED4BFF85
:1016F000908B718C8F691AB9561AC5367C4CF924B7
:10170000DFB104631DD68C10264F9D40CBF8FE8DB3
:10171000F90A8985176FFBB02031CCF0B1FFBDD835
:10172000B12057BEC550F90847C662EBD8100B353B
:10173000FCFA627BC361A7EC72B8636B49EC0E2DB7
:101740006CA750FF608CC2F25AEAFEFBE73D78823C
:10175000B1409E31297D6D4DE0F9791B1067AC6B6E
:101760000254CD5BE297975B43F5A736E6A0F82ECF
:101770001D63FF6AB3089B4470FA27AC22FDD82989
:101780009082BE48ED36BB5E4640876EE6D990FF3C
:101790002796F21722C85889505BFC7FF0FB060998
:1017A0000BFF982466CBD6BC601058FD5CB3B2C06A
:1017B000976682ED6EBF586161E6984A6640EFC356
:1017C000B5306A665F7AB021B5B370B2FC17F41811
:1017D0002CFB3C8FD808E05DDD4D60FD9AEF46663E
:1017E000FEE06172B310C901664271BEB19A862DE6
:1017F000B3A0FC9BED980409C9F511F3661B8C1886
:10180000DDDBB314FA635CD967FACF06C31E517DE2
:10181000061997D606127BD020FDB3083C98039694
:1018200014021A77FE6BF9677186CC6E1805B066E4
:10183000C5B34964AD1918FFE21E462718BBB3288B
:10184000FB043466F3A90D5619FB77EFBB0923B3EC
:10185000190C3F7F78B2FD57CE0499D1DE986FB650
:10186000C83FBD8280F9847A70B0208DB3A8B3FEE2
:10187000BC61CEF3983011C71BB3FD0427AD64CC17
:101880002A34CE1AC8FEC93DB3F51177EC7F04DFC8
:10189000DA7F0AACF8056DB390657A9810C8F398B2
:1018A0000CFF7F38D9F908BC306DE69818FBE5E8E5
:1018B000FA64EE490AE0B36F30B3CFBBB140FE1219
:1018C000CD5E1A2CB3444BD6E51036B3D984FE4610
:1018D000A62FD7B1989DFF36B138FC77DAE2AC7B02
:1018E00078302DB333FC563384CBAB140C3F7F736D
:1018F000B3FA8FCD3083D3FB7F09FA3B97300825AD
:10190000AF10F397E8A7100C22EEB168FBCBFB8079
:101910007F3C9866C2EDEC3F7BFDED5A2F0519B375
:101920009DC0B08093D698FF77ED9A224D707C9839
:10193000C2A61918FAC68DE2D66E8811FF32D0FB06
:1019400066FAE50CF29D32FDD0C2021845DB17C0E5
:101950002B977D022CC2084B764914DC75636BB360
:10196000AA2B5762117E3206D7EC32B57540847BC4
:10197000D5D938FEBE98B53C6F5D7810FDCC028598
:101980004DB330FBB830BD73EF2061C776FEF1FC7C
:101990006EE0638030E39B3038F827D79824FD4110
:1019A00097E698C61911F7F634FF6719088BF1030B
:1019B0005F30908FFBCC80FC12DC111832FDC31518
:1019C00019189466B282562708C6F914F60FABCAE6
:1019D000DD494193EDDB600195DBB14008DB66C179
:1019E000F83F8D30BC98C3061970FDCED3AF6F326F
:1019F00098D621C011B6B3E3FA4F6C1804BF3398E0
:101A0000F603C7DBFFB0FA18E630A001C2D519888B
:101A1000FFCC62799D5EA3616FEC7FC8738D30FC53
:101A2000EDC2355BE0AF197DAB13048CF9F34C1FAD
:101A3000EBFE2B6EE36DF530017F7F0436E405612C
:101A4000D48FFE78F0CAF3989B193C107F6C98E015
:101A5000012DFE7E40F8C93230F830C73A22C7F572
:101A6000624066F3308029616BB3C8FD677E8509EB
:101A7000F319D6F31016B06568FB182436FF98FFEB
:101A8000260369E6C9426706DB6CD473ACB1FDDDA1
:101A9000E310F7C2FBFDA005B301BD9808636BB36B
:101AA0002A25196079BDFE987E76BB8041FDFEB582
:101AB0001858A90CE118BEDAE3F33D0C2077DB7F60
:101AC000F2C707D1E590B0038966F8B3FE4DEFF990
:101AD00030105E986FDDFBD802844B66412BF77F98
:101AE000427CD706476DB185FBC008B0028BBBB105
:101AF00028FD1B16E1C2156BAFF8FB9A20CF80FEC4
:101B0000520240BFEF016719F3DF32B128A2D3E3DD
:101B1000CA04BF584B24D1939CD1638C39D8FB465F
:101B2000090266B3CD04A08BF3AFFDF3420B9D66B3
:101B300078F908887999B9B185A966A066608FF5AA
:101B4000CCF67F0B3C7D607EA3B380B085DB9063D9
:101B5000A8B3081602142C66F42CD5AF208871ABFC
:101B6000924DD9B0FBE77418FC4EA4B2015D47104A
:101B700080FC939B7B01BD3A25635C42D94003897D
:101B80006790FDD14030F8A3A530FB6499D60B9C3B
:101B90000245F3448F72FA048C1B8EEC8860F815B2
:101BA0007DE520647EC804D4F3C7CC66BFECEE09A3
:101BB000FC275888104066B3FECC94F3567FD802B9
:101BC00040F1918E696293E6B915F5FE87E31BFF3C
:101BD0008879B38DAD3940CC0A7F56FCF92BD66D90
:101BE000E6FF1AB6191008867F1BB6FF28FC2DD613
:101BF000C518EBAFA8FC6053EE9680C396B309FE00
:101C0000C68CE22DEEFD18FBC14419C0FD40B3089F
:101C10006093CBCA026D309489B3E8B0F9E474CF15
:101C2000E559FF98B861DF367B38F90B5F7FB1105B
:101C3000254102849FFED820FCA6993D66B4133648
:101C4000668CFE69CB9EB48E20D7A560608F3BB3B7
:101C5000C0FF0A0ABE51C73541B8B2FC4C7C8DACFE
:101C600044B12E822332D8963C029F129981C748F4
:101C7000B3B903A10146F986B983ADF340623EE4EE
:101C8000B2088960CC601110E40257269E05F1F875
:101C9000C968CD0812D06F94014B9208E01C3D1228
:101CA000D7803DB11804C2AA50B8C47AB1C73E97D4
:101CB000CF2FD9DAE70199541F326BF6D93FF4CC14
:101CC0003D6EF94466D4B542FE77E8F8CE58CB04B1
:101CD000C1BF8FF898B119C17E946143FFC8FE60FF
:101CE000DBBB960209B31F88B3FC7BFE2866ADDF21
:101CF0004456F82210B666D8FF10EEE920C26ED91D
:101D00000EFCFF3361C3FFD8FB625D48BB40ECDED5
:101D10003058A748357E3204C2AEEC9DF8FBE31E76
:101D2000115ADB30B6EB18203B969B526620C63327
:101D30007A40611ED6C4BC6234892611006441C851
:101D40002C80A050310610E9882B48A342E33C22A6
:101D50008FE04DFF039C04E93346CAE6026120F49C
:101D60002921EFED1190FC941E10827ECBEDEA74D8
:101D70005A01262FBB5B02555401E3EECC025F01F2
:101D8000D0A8F9B9C9A3C16FF8E5604003E6716353
:101D9000A2A62040F0B10C56B404C00518AAAC307D
:101DA000F140D6EB048030A8B1DE45F04D2B0B415D
:101DB0007AA55043EB34F318A6B1048E3776246924
:101DC0008A11EED10850E88A4B6BFDE9322301C03D
:101DD00082589F90E98C0210301B46C0A0404D9362
:101DE00021F109D83008A6607098761360148FEF3F
:101DF000C1200804A6A166024473C0A0FDF73CE11F
:101E00008007F0781EC403787D0FE08124F3F2F39D
:101E10009069F3BBE0413C39B4E07F0FC6E0C803F2
:101E20007A79F7CCC616C0A09FC61E2C10E8FFBC5E
:101E3000B9EF99CF260389E90C8081F3C05ADC5FA2
:101E4000BF5A81B330FECCE3B3D7D3608DF7D3C292
:101E5000DF9A4566F7D4FA98A00F14C2483EE08B8B
:101E600060040C1D11C9B3100C36B30224B303096E
:101E7000026627B34486580880A37869900531DD4F
:101E800070FA20A784FED3600387A0310F20405F43
:101E90009F2F9BF3063F363528ABED016CEDC40652
:101EA000107F6B20CA8504A9EB177F5B63206965EF
:101EB0009FD2734DD52A016CA3B3017B4B807F5712
:101EC00063D133657CC9801DEF3F98F7E9C0F9F90C
:101ED000886FC884011DE6AC47AB4404EDA43EB254
:101EE00044DCC8FF88606F5C6408CEBD446918B1EB
:101EF000486EA355B43198C09508F3E3D0B720F3EA
:101F0000042132FA2A31CD2226ED597FAC202C3E15
:101F1000973010160197D4432C93455B5DA258046B
:101F20000395EA88032F7EF8521260FDE04BDEA590
:101F3000F4001ED012F198F3903DF35DE68B9EAB5A
:101F400062DE98C0C0836DE998206347D3FB6B388D
:101F5000FDDF8401E7A5FE120C5BA0F98B18D6BE4D
:101F60008B24E06166C62DB347D3C691F80A41D5EC
:101F7000B323AF61DA4B852DB3044CB3FFD97F296E
:101F8000ADB304C4CAE5014FD3810DA8FC2072A1F2
:101F9000D073E14363E680AE20AF5F8EF8D9BD0217
:101FA00066FAFF21DBF67820BC30B5C0FF720D2148
:101FB000099B059CFA2F92ED089CEF377AF5C42017
:101FC0009B9B7D11FCE5FF5966407ADC2E78F52D50
:101FD000FFFE98AD40AFD34D2A03260991F0075874
:101FE0008F1A30F998BF2D3006FC2A4019F738FFB8
:101FF000848512AA26A0E40205EBAB1602AC91DFA1
:102000005A9814B6F80A056AA214FFBBFFBF641100
:10201000304008FE5BDDFF2226004818010860CD35
:10202000404C51301C3E8A7FB69830092DFE322339
:102030006012D3AE7E22B385E1DD25B748F598C4A2
:10204000735D0FE277253030F3E466E605B16EABE1
:10205000F8E58178F9EDD383787C98FECC8401C6CD
:10206000E84F3D0830F9BF88D59880FA12623FA04A
:102070008523F3C6B327C07D199C306BA454665EDC
:10208000513421FF335D474B250ABD4B1181312669
:10209000AD41B16956B38051CD5DB346F56FCF30D8
:1020A0008E808530D709F89A983CD940200C08CD0D
:1020B000FC844DC0FC6E2864E7DFD64A12ADF8B050
:1020C00005AF9B983CCA260818029DCAD809B07F64
:1020D0004540FF6DE9CA08FC5ED15E9867F9099F2B
:1020E000C6C92392612C3A564FFBDF75C43046CAED
:1020F000400226EB61F95F60DA1003799197ED6495
:102100008940AF5B6EF2BB218FC62EB3653090FB6A
:10211000FAFC304C35440176DB1CA108C018623B48
:1021200096B310B3B8102285887FC84C88810421EB
:10213000C29BFAB730B9301927A6682C04F388304F
:102140001006B4805A62D8142C8F1E304B772DF7AE
:10215000A39FB3C18218021248B38493B082FF5C7C
:10216000776BE798F13024F331F3A6DAF3E401CF8B
:102170005B66E67130AF1FCA948E0C7EFBF62010B2
:10218000FA7E3D7DCC406CF37F01232D5D567F02AE
:10219000FD6467713017F35F749C8E21FF2B116E05
:1021A000773062110C86F3E6421805B3448DB3FD17
:1021B000E382647D3398B3D724C8D30AF32CD0814B
:1021C0001110F5E8FB2085E5E7FCA850031F04800B
:1021D000A04532F320FDD7CB984D2F566E10ACABF7
:1021E0002244BF63A824DBF156E72BD7988D118DCD
:1021F00093013B28A2FA80E3166E3C30D92BC57DB3
:10220000F3716AAAB304D5B30247F8F5251ADB1AAD
:10221000E7FC6D0D88017EEBFBF1CBB837EA8170EE
:10222000300B08FBBBC077518EA48865C808C8B2C4
:10223000B6C0DE24A206D3E299FACC79B3B8FD0485
:1022400090225A026B97C89D5CCD306020C64F77B4
:10225000AB4B01D47846C26EA1BB0485161D73300A
:102260000930EB4092FCB9110246F09E18EF614430
:102270000C5F43F87280302375118CFB724255213C
:1022800088B15E7EC32402E6F78B60D565C8AD28B1
:1022900066E660416689789DA0FDE07E3D8807F195
:1022A000C8F29856F3405DE8E5989BF5013345AEDA
:1022B000E07AA50465D3C8D3BF8E98298270B83060
:1022C0007DC608A8FB88BE6EC8625A06318BF386AD
:1022D000F2BB59BBEBFF062F9730C02F0360E730EE
:1022E00008E9FEE9800932C01469C030ED0513A683
:1022F00009D30478B3266366808536FCA653B306FB
:10230000C2770D30F38E784BFCA7FD2010058A189C
:102310001142E441A0C6BBC180A48B52BF08E69F16
:10232000B6A0D4B4DF85BFE099CA7D10FA49FF0A90
:102330002209285EC1D77CF8DF73A50AEBAD405EA9
:102340000B09186DFB438038B3DFE8BBCAD453DFF9
:10235000BD439070FC6F092006BBC48F30D9DCEA06
:102360002D237F076064E62D01CB23AB835290368B
:10237000D31FB3B931FD800881A2140E42B9300CCD
:102380004669C396B621714E99F6CCE2718BCB2685
:1023900069F84C0899EAF2FEAE76FEE482980408E9
:1023A000622F2C8401D63102AE5598F113DEEC0574
:1023B000304253372E987D12A6A5AFC2913CC1245E
:1023C0004C84892F118AFEE0FB003C9007F2B95D36
:1023D00078B510F698000E6BE178DBAB813C34B435
:1023E0005AEDF330C8836FE29853ECA4D8C62CC0E2
:1023F000F2FAA541A6047E8C80FE323D38301312DD
:10240000F3E58CB3BF3FE5A63A010CE6603BF8600C
:102410001BB05C26C0B71319B33920B3B32432C83C
:10242000C699B3532069E110803057701F30A4174C
:102430005F5FBC832834A20979E2A0E8067048AC4B
:1024400082DDD196A0B31F7DE60CBE98BB80EB72F7
:1024500084303B0219334F3597F571810DFCB50877
:10246000C4C0CD64E95F99E68F769A5B733870F9E2
:1024700036FB0C99C84AFA02E8FDE8231BF6DBB2EA
:10248000BB5A89ACBC01BF5BF5061A84F8B3A1093D
:102490003EC9F698F88489AD6923606EB085FDD099
:1024A0001148B4ACB9B3BBD6804486F8DBC87AC651
:1024B00040EECFC304A822D8F80B05300716C0C0E1
:1024C0000818832012862C7EB00806C002188EDD04
:1024D000CC78B13676DCE3EF3BE098046F69981670
:1024E000C4BA638A609E99101140FAB40FBDA5204A
:1024F0005E986D98C8F1B316DA387798AB879D98D7
:10250000FCACF080B2D33D9840F006C80370CEC654
:10251000002C3758FA8864713DF9C8A220F35C6634
:102520004040629EE56AD379FFBAC6889E0F38FFA5
:102530008009DF6BE33AC809A017F39DFDCCC6E61E
:1025400072FF89C413B398BA61032880F81132204E
:1025500068FDB700F998AFDDACC7C6E7C84842468A
:10256000F3FC8F677288108F5B6D5606023D9801F1
:10257000E6200904BFFA2B5F3598D164EA5DA46CAC
:10258000C9B601F5B0129C5E67A99988ADF0EBFE63
:10259000800128D5BEFF5F9840D4AE86595971544A
:1025A0009CBDB503FA233516ED4C2411C6F3F9AEE4
:1025B000F4D8FE0444694722F998E7AB8BE3F32B88
:1025C00036C810C7807DCC959AC840E042AE7F37B0
:1025D0008004324038FA84BB45BA1704187F68116A
:1025E0002C8409B1004694C1A2DAAE245D30B0E774
:1025F000459AA2B62A0C308DF1110379A5EF9AC045
:102600008258080F6042E7808151AFD0FA69CB3D14
:1026100020232BC8DBC51E04F830B3C80768BBB540
:10262000905A20E81DBDEB98404F5098F4F3297064
:10263000D843C67FF8657998BF2D300478305A6347
:102640002DBBD85B5E8C418CFA47D7980467C8C80D
:10265000F96FBEF023640ACADDE38295BBE3085636
:10266000B38405CD69B324C8E323A6617981B01E84
:1026700068FE031A32FFF696C7DBFFBCFF5E3F33EE
:10268000D6470169F39FFB32281A41D3802C66128A
:102690001BFF89FE1B33668CD171D3BAB1FD059F38
:1026A0008085A66FFADDEC1AFB20CDB722F31E154C
:1026B00037C8D3D22D462045F3DBE0FE234CB0A132
:1026C00024B179F38A7520E62449A4E468B9D823B3
:1026D000F920FDCCB35918FF669E8B696A0A63FC2A
:1026E000880199ED7AB8F8821FB7EB0810F1E388FA
:1026F000FA9890C293BAC654BA08F63610FFC2DFF1
:1027000031FBA6E3D8FBC53EFBCFFDD8808B7DCA4D
:10271000AEDDBCBD6768FC8E2C7680D56E80889B54
:10272000B3B0E150F92D20888FF746046C64B120D6
:10273000759F10FEE809E06F194DD8E0F8FC524C87
:10274000E8848013E142BC401D5EEE7A67E8AEB3D8
:102750007E17622004B070755739CAF8FF40E459FB
:1027600087405C661AED2C06698082E44C12FB2AD5
:10277000A3D58012CDC83078537B10BED50067BB7F
:102780004082A042A21208BA2E30FEE7E034801147
:10279000FF080450400D38010335F1A4D0A64B6C5E
:1027A000C350313F98DE1702EDB7C481AD113960D7
:1027B0001021075278DBFA0279899CC966981CD7E8
:1027C0009A03B7BCB0FEFEFB403A2FFA523984BEE2
:1027D000025E196E11C67D29B33839016AF2595368
:1027E0005F7272F64192E9FDB90490C6BFC0BB08A2
:1027F0009BB704828DF38B2EAC3953D8D512483B4E
:1028000009205CB2AE7D3960B4FE08DFCE6F81086E
:102810004031B0EEDBF8089FC4E6987FDBA1F9B247
:102820008F19FFFFA8C028FDB3843C6EF386130008
:10283000CFC75CB20888FFB02CFFB418022D271355
:10284000FD58F9678BD2E712ED0D018A6EE080F535
:102850006311A32B28F846E04FEDBC448F131611EB
:102860004A3FB69051D7723002BBE7C048F5030823
:10287000ABD5D72062DF38A3065429F0079740F084
:102880009CB371CBA0FCC9399320627F9D610FF688
:10289000A4C0FD7F5B8599A5ABBB02CCE16F7296AE
:1028A000F8608B19EDDC487BF3D873C4B3C8026DB4
:1028B000DB724011DEB8B8FCC23F317113413BEE10
:1028C0007AFD8EFF18F6E9CF84DCC3C92098664FE5
:1028D00061D2FF01DBC1361DB0C8F88F7A1740C640
:1028E0004C55DF60D898FD30486CFF98FF151BB33E
:1028F00080020E7EC890FF143608F9FFE42CEC2904
:1029000059C080DF05BB10768AF93DEBA60115CDD5
:10291000351090F7B50662AEA0FB37319325D2048F
:102920007D50E6F511364858FBC75865B68B76FDE5
:1029300010D0F31B1DD60310FDC80CCFDD2810618D
:1029400036EC8B80943002D1C9F8E91788432C9774
:1029500084F29CF35FBF84AC3363BB6384801174E7
:10296000E960FF08A06FE0371AF28D80B2CDC5F4A0
:10297000598D88D4EA04CC685B4EEBC8FA204CE849
:10298000E741D1C3426AE26FF3D7893DAF0862BD28
:10299000B5590144DB626BC84C1094020EF8A0F8E4
:1029A000203004B90116F5B953B32C77E3CC149851
:1029B000E660573005D971669DAB9D2192C11AD84A
:1029C00089D5FE809C0CDF215008887F0905C0FD59
:1029D000A0485F203F12100663605DFBF024300CBE
:1029E00004BD100A0082E40ED46E16792421EF068D
:1029F0009BA42897F124EBCF4120C498828115181D
:102A00001B6520F60448F940BAC1A290FB6EBE08CF
:102A10000431C35E3C68AB963E08FB938E805EBC7F
:102A200088730C58FA68DAE54004446FC0EDE50895
:102A3000DB65AE88ADBB0800CEB636EC1448CEAA36
:102A400021319CF8C0FC4799E7FDFA2CD62DCC1912
:102A500004EC9944FF77764D1035D6476BE428FC9B
:102A600064986BFAC910C733C39080FAC6339C01CF
:102A700045EAE75E22620230873D7BD0F90CB03236
:102A8000DF0509E67D7111754B8CEA4B02C96C3686
:102A9000A0FCCEB2A20C2E534BC3CC5B440369E620
:102AA00003E620AE782F7DA32868BCC7928881E416
:102AB000DC0D0D81899F05C6F2FFE26BDA2985FEE8
:102AC0008A60FECF2378A5CC0B7CFFCF68C75CFE65
:102AD00094DC3A8F6E2F8D362A23324289FAF11117
:102AE0004684399D1828FF897A6220CD3168C3BC9D
:102AF00076E0F8FEC5B5B0406498D4C7DB6BAB3F59
:102B0000087B97E8FE11CB110D32BF7C7330FD209E
:102B100005CEA114F55240CC587208AF7BF424A224
:102B200020735433F5BB04C7CAA85602C6C40C159B
:102B30004B731830D404652D3601C9B5C2FF7F47E9
:102B4000CB5B44B30396206027FC941004B2CF05FE
:102B5000B1F393FFE188FC800535F70696256E7486
:102B6000C7602134626B6612298B42657B3430FE6C
:102B70007ACC0890B5131FA6FDE38CED11624DB31E
:102B800004C61B86ADF10654A88CFCF522C0FFE0FC
:102B9000D99107F6E61EC883FB0FC8FECC78100655
:102BA000E041C455B31CB206D3D9D8806C34950F1C
:102BB000ABCACEFA34F0511903F0921971D68936A6
:102BC0006610065966AAF80C9FE608B0F8804149DD
:102BD000ED01E0C0040365ACB31251B3B003470884
:102BE00064B6B3070243B30168D1FB207DB6B69447
:102BF00089013FE598E4A5C015B2F3106DCE1A5EC9
:102C0000F43408C4F9032FEC8B57D6980CE62AE469
:102C1000B77B71F3B20C047B6680E8FB63ECCC7588
:102C20005BD698084992A7AD9810FD981E6ABFFD23
:102C3000302069FE8001AFA7980BE84404642CB6ED
:102C4000225B96D422E7848DBB1911FE985E7EDF4D
:102C5000A2FF9509E7E12CF88C92CC58ED459BB387
:102C6000160232860893D1124604B9D9A80C3E79CF
:102C7000B0402AF9BCB2FF5798C480986430667897
:102C8000402CE04F2F78F398BC78D9F3067F8C98CE
:102C9000FD3C0AD83F19CBE5CE9831A0FF3598F11D
:102CA0006BE06AF3B2047D98A394FC33533AFD5869
:102CB0000459664E3F82B14066B31604C915B3C6C7
:102CC000E65E8FB3100270FF5FCFA680F140502305
:102CD0002FBB17084417CD2408718792E3970AC2C7
:102CE000A6C534B6FFCAE951DA639C306EB1B104AF
:102CF0001CCE7B3052FA40D3C2C1B431DAFE3D3033
:102D00000310461687F2F50AA87A0E60FB24FFA589
:102D1000B9F213979D5220828CEB6C0801648B44AE
:102D20000C6F799828FC8489F8AF86D0B910C45606
:102D300049667ABF85C4D4B626D3AF0336985BF311
:102D4000147F3202C8B6FCE630C00340F76436CDCB
:102D500038102DEC980701B736F298F56612AF3EA1
:102D6000303C0840F988DF963001572C7D406FD603
:102D70009808FE9864A36608DCFDCDBB23C14BA375
:102D8000ED71C10EB14294B31C064AB308D5B3B07D
:102D900002B8FE0930025C3046FB4BC26814633E49
:102DA00098D942043EC2B502F798840820B3FC0CBF
:102DB000D725F3988C4541E990B2FD3A9EBFCC02ED
:102DC000657ECC60C50DB63C982B75F314BF879813
:102DD000F7FE8005013BF55810113175812C845D9B
:102DE000518846C6E7F3F88B4737AFD2FC2E7C46B6
:102DF000EDFA90713093D5B1ABAF5114F49801D680
:102E000086089A8F750AB7E9320284F869EA98044D
:102E1000F0980FE36A7E0030C5FC9803FC98DBCD88
:102E20008B7C989DB00868F9FA15AE0208B7E3F0FC
:102E300023B66720127130B166C91039B3A31146A9
:102E400096E0215E4B7BB4182FB3B39FFC98F558E6
:102E5000FEDF681577EB40A30197EB984119F098D6
:102E6000160277A99821BB22DAC8F9FE3D18CD5881
:102E7000C660D7809867F9987CDBF66B38FF40BE58
:102E8000C52E9E309193C598749DE1981DCEE59016
:102E9000FA24F27EE27D58E12CEE5BC8F13D9FED15
:102EA000988402677030FE772930C6B302A0884547
:102EB0006C82B3E530098BFE32058D9316F3019FCA
:102EC00032988CF8281BB0FB238C30CF159868966D
:102ED000AE27EB9802F2C8DFCF8BF2984DC3249F48
:102EE000FD97C630486606177898ED6690FC736BC0
:102EF0008CA0042B6C9FD832844CB37FEBC20EA9FC
:102F000005B320B401FEAC600BCBE330FE5DC7FE21
:102F10007EDFD49841FBFB22BCFD808155DB03881A
:102F200098C94EFFB904D128B8F971FF5EE502ECEB
:102F30006E1963BE98B3187C987FC22810F1FF8881
:102F4000013AEF16042C4AD9C84C2BCC121CF0982D
:102F50000CCF509804AB0FFAFF80917A9F182D2365
:102F600019EB3CCA5FB5B1056CD1C898E0E43B7978
:102F70006BE09817F63272FDDE98B3D07D98106240
:102F8000FE989A01D30833E0FC9877CFFD8479E569
:102F9000256608F095CD7D6040859E98A70866BBA4
:102FA000F8C0BC48ED7446230453618FAF4B083B17
:102FB00019BE05C8F82084FE07DD41AD625BBB0881
:102FC000F3F1480C46D92619A5448E2093EB9812AC
:102FD000C97E8722ACB0B5C8F57B019FCB51801468
:102FE00033664DF0C68D17FA8F33F2C53CAF03DB65
:102FF0009630202BE598B7F89916D9C85E98E51851
:10300000FC84E3A7A7C521E74410641D66A6442CF1
:103010006667F998E0AB3D60FB8411A73730100B71
:10302000AFAD303BD7CCB877F67F12BE8B6BE7984D
:1030300072CA98B2C83B4E003052B9F83CD56338DA
:1030400062FC30AF035B9804F030DFF6169AC802DA
:10305000F798E8F888B681E330FFB43061CF3530B7
:10306000E8FBB76380E0AF138ACCDDB370B12266B2
:10307000B32604CC5AB3108EB3F868FDEFD7BF2047
:10308000EBDF50F0908D5A92E45B218CFC20EB1624
:1030900025F420EC2230FDB0EAAC28E5302098B5CC
:1030A000B90466FEB740E35DD6750CF9C761171B1E
:1030B00030FEF603EF7698F0FC20E447146DE698B6
:1030C0005EDBD891049288F130BF8443F65AF980D0
:1030D00089BE98AF081B59CB306ECDD241D649B9C5
:1030E000C995AAE226E39D238930C6016DFD32A869
:1030F000FFBE40C87F2D303C52CD38FD5BE6966068
:10310000DB2C8B66D3FD98106FCB23104F41982C8E
:10311000EDA0FE80F2C88CA0EF0A98D5B3506CB336
:10312000623E9801BFAC984985B3432C780884B3BC
:1031300008B7B623661118F64B4004F2B3FE218897
:10314000FAC7F43DDCB3C7DCFFF8FB20D7CF80F42F
:103150005202403CB3018CF3E3D11C60D398FF30A2
:10316000481BFFB324048666FAF923048666D8FB5D
:10317000BE9BFF231EA0FA8FC80293C44D66C0D326
:10318000A37334C60E48FDB8CBD4EB03CCEB93C588
:1031900013E37D24B10335C611B0F957F932EB6161
:1031A00089FFBB8D40D06099E6E5DC9B66ACE750BB
:1031B000213374B79188DBFD40F15D87EBFF585DEB
:1031C000B049A5B10262FFA4B0304FFDCC1093EB23
:1031D000A6047D31FC73CC2D6601657E93FACFF198
:1031E00058A4636BB0084FD9F1215F722FCA68C928
:1031F000F4F9F20B7FCB4024D461B39D9680DB239E
:10320000FBE3A645C00AB7EDBE40B2DE76EBA0FAFE
:103210008B4A38F71A016C597AE222E3EF085BFF18
:103220002860953A03DBF0FECDACCC153BEEF07890
:10323000FBD7F1E110DA98BE62B8B48076FC100CCE
:10324000FA7E580D5EB86E86C038FF62BC8CB01036
:10325000C7D698FE0A5D175D5963FBE663FD886576
:10326000986679F0C036B8FF0A6B198037D6ED4002
:1032700011ACC008AFFB5148FE08205E332F7E3DE5
:10328000C31FECCD88FEA57601879AF1D808FA5BBA
:10329000F67F359B4CF8050FD87F0222ACB3FD12A8
:1032A000D6668047D9F16B5D800C5BB3F9800485ED
:1032B000661887BF7FB280FA35CC1BB319080E564B
:1032C000A69018FC7FD89004A6F62298FBDDFF6A32
:1032D0005601859F7D8E01C96D1A54FEBBB80461ED
:1032E0003866D8D320A3D3F8F97A7F06E3520FBC0F
:1032F000E607D8FD209903FA0CFDDE30809263EBDF
:10330000B30819DE7DC0FE8F71D84E3601147AF3F2
:1033100002C5797DFC0204C4F56E1063ABB30811DD
:10332000F79988F90A9B21C704639273621FED0421
:1033300020AAD380CA4ED0F8FD2180F5754094961E
:1033400046D22FE541E62642AE40C9FF1C74FB4041
:10335000F1800590010DF518CBA32423F4004087DC
:10336000B1A05DA5E0D6D013F8FEC0306AEBA7246B
:10337000A5F0FA80103B0CFF5A0572E144F6E30811
:1033800004F78D81E2066264B48836E110BFECB4C4
:1033900012FBBD9A2CE8FE34ECF8CD0DFC71580DF3
:1033A000F7D9CEFF5E7B11B8F83BF92010144DDC45
:1033B00040F30889A5662085BFCB7FDCCFB86C7C45
:1033C00038FEB3B60EF22F06DCF9DC2EC7BC4BC7B5
:1033D000F3FB80DAA8FCF94C942D634BA110171D68
:1033E0008AC049FB93E6C01F677A90FCA302602461
:1033F00088585770FFD868F8E9DF85590FB0B8CF03
:1034000036C8102BCBCAFE047D401780DB90FFED41
:103410004ACBF7052499C3134F7D3F15AC9E9F30CF
:1034200001B0B8FFED48B0FDF945846139C78B7F25
:10343000CB38FA721B116CFB4427FDE61095BB9C40
:103440000955E912CDFBC8FD99FE0F100109661E52
:1034500024FDA37680802829F5C9C6ADB9E16E5C4C
:10346000F708010D202CF3FFFDBD1FD60346DA142B
:10347000B7FF400CACACF8DEA671EAE02092B318BE
:10348000FDC53A7AB66B88FB622BF3DDC07085818F
:10349000D360012CEAFFFF3F2753A053FD8C058D1D
:1034A000E52AE619DD3C8121A0AF05D97FF98E8997
:1034B000403002FDFB061361414015EE142001D19E
:1034C000612C30B5304B66DFED2440824130D9228B
:1034D000E0891960A234649043CC03701968B1B1DB
:1034E000651940271C0FFD3C0869F9A578D3E0E079
:1034F000013C6CE8FAC1D5667E896CE3A9B10C5C2D
:10350000AD1C369BF9CFB56C7C03880136C6E06FE5
:103510004A64ED24AF8141C1E08DB128356686E66D
:10352000D886B3AC196808E6E9493066FFB50D41A5
:103530006435D61102E579EC98220A184136042D3B
:10354000F77DFBC24920B2093D984D8020960AFACA
:103550006189B22603FFB77259E80C261DEBEC8295
:103560007F7AC520400C086CD030FFBE6918E0019E
:10357000EBA0779C98902CDDEDDB3C041D8BC1EA21
:10358000D7CD8C1920A9927B1051FB4BE00A76B362
:10359000A00194F150FCE4230282E20635E5989CF8
:1035A0003B843406BCD9DC214CF9E562F804AC1B41
:1035B00008B77D3041FE3293BC2E6EE030EB4016F2
:1035C000F7E0848211CB32106655670172D682967D
:1035D000191C40DBC0BD387F9D98D3B1F33C62FF1E
:1035E0007F4C7707E004E07A771869F360F9F8D93F
:1035F000FF089D2D6DE998015B5E8B62E419B39D18
:1036000004613008BA2E829A542BFA32C08FB2F27B
:1036100098F8CC30414BD61827B3C54484916DD36C
:10362000B10D225BEF69DBFE222BA918D9247AB0F9
:10363000410B6FB37EF95A1A2819D7FFCB5210F3FA
:1036400095570DF3CCE5FB677EA710C21DD1491835
:103650008DBFAC6B188E2130B3F7657975FE987A03
:103660004360C53F370537B31C7B9803C05C035EDE
:1036700098A118619F2967C7FC46966F57D8919803
:10368000F88BFE8110851966B019DDC218ED2C4C3F
:1036900020DA625EE55C3D6EFF6DC7303DE482512D
:1036A000301188B3B34601DA887F7A1704310927CD
:1036B0003CB5602084D280914BF9FE376AF198F3D3
:1036C00069C0302F02E35D132E19DD5DC0CB30627F
:1036D000FC98EECE5070F3E4018E2DF3E511E53049
:1036E00083178F98B89F0A30C9331C79300C2BD3BD
:1036F0009676F860B30B347C96333428B3B616DB79
:10370000E3BCB8DBFA558CA203B3FD5FBDB20A3D42
:10371000981159A9DF8024E2FFF9B2DEC5FC007DD3
:10372000FC2D208034BF1F30EDADA4F895C57DB0D1
:103730009E1B256610F38DFA9220B830D846FF9A6A
:1037400003D0A03266BD58417F9198F7D9C8B181A6
:103750007F3F49E88CF7DF973003307EB9FE197957
:1037600094BF01CD980CF56066EDF1E54449015B2D
:10377000B75A840134AC72FE2465E5C81F66FFACFD
:10378000020C088562CAB3586DE0228C0F66751A68
:10379000808C82EDCE3AFC97EB98E0B3C8B028F865
:1037A00039060EE0C5DB661E04BFF9628380086D32
:1037B000CD300FE07E7C60EF379825B35B31B0668B
:1037C0000B0C18FDCC18C2E0AF5BD3FD80FE98A2B5
:1037D000BB19E36A75B30403196DEB78081963B379
:1037E0006820E50410D3AF3A30420CA052BBA86663
:1037F000840B2B53AF024622109C958781A1B1E028
:103800005E5330122302891A84DB27C8F341809B60
:1038100021FAD0BE32C95B1901A8F310F3C6FD9896
:103820000868CE1DA21888EEBF64CC98E284EC44F0
:1038300019C0AA6262E319B77026E0BE30DD8703C3
:10384000A6C2B3F8FD8C55B47E41DC9924E163191E
:10385000CA37B69079986D087CAA5B42D5EE85F29E
:10386000CCE996B310FD64405616F1990418B523BF
:1038700061EDB810018997208F98CB608108DA80BC
:1038800011E882FAF3410C0248F2A73519E34A6FB6
:103890001EEF43801EC0573998B8AE4D80B61EF952
:1038A000D5DFE441D1A91FD7A46F1C38F95A2F6680
:1038B000FAFDC0EFD10561A98C7DCC0A6624FB8C92
:1038C00063664FD949A89E9832E4903A2610184E64
:1038D000E3E02402580C9F2030025798BD9808045A
:1038E000A001B819DDF921EFA7FD2010046474636D
:1038F00080F3B866D0DDBA44C534AF46B35D77090E
:103900002EE0040E81EDBD6BD32C87FC8065ED4964
:103910008FE5C8B988BF1B91FD097A4B81CAF26255
:10392000CAB231D98CB7C853BE70E0013176EF0C02
:1039300006E3309E5F88FF0805CEED7C10E75E6DE4
:10394000428B74B14A10F398966D05A93721194F2F
:10395000F70BFD80510B0A466E65E605314169188B
:10396000F5B34C715D9EFF6A984C69212CBBC6B8BB
:10397000170858C7ED048C777F64F9FFE0010C80CD
:10398000B20772C86FFBF02C19D8C841B7A69816B9
:103990007918B2C852F6D320EF568B405DBBDAFEE1
:1039A0008459280679C8BFC02FC8E35D14CBC8FD71
:1039B00098405A826DE66BACD373F9C0000264364E
:1039C000B30834DC5D038C88629C7D8046FF2D98B3
:1039D000AE07B5B17AB3840CA051ECB1FA28055604
:1039E000A2C2B3C280A652D0F62307048028B188B1
:1039F0006F5D9882D824411684FE98BF01D898A0A4
:103A0000FC64F7B7462389B14D31458F5C90063F82
:103A100046BB469B07E5956AAF0DDFE57F4BD9C8EE
:103A2000A6F0AB031906026058989F9F98B9A0585A
:103A3000E0F6C20130209E98B860D39202FA9B5BF8
:103A40002F3B6620280481AE1B9613FAB1C5BECC6D
:103A500023BDA545BB20825D3DC8117B896AFF5F00
:103A60003F8A09B2AAFFEF6C0450F2C572E1610C03
:103A70008C33C63AB8B3A82CD18231D37203029AE0
:103A8000F38C90F69828FABCA5DBCBFCDCA5013CB6
:103A900020AD19EBE00370D6B8402DEA98060A195C
:103AA000B83DDBD29878F357C6F67FFA84665CE2BD
:103AB0009371A9DC3062BE987A2460EE0ED5D7D619
:103AC000E5609E98C219F98509426CD8EE2C8445B0
:103AD000F598227499CBE00D49136B662602860E89
:103AE000C0821DA17130AAB321FCEBC858F9D400E3
:103AF000C193DD4008DF51801102095E980F400339
:103B00000B440DD8A0119B6510122FE0F3985E4670
:103B100030585E98C40D20AF043C4B46CB3CD219C4
:103B2000E37C143C19E08BBB2D51B63C06200C52B3
:103B3000F0FAFC513064E4B050AFC22498D3045979
:103B400003F3AF0CB1AC3FCA7FF0D33B2DA5AE1948
:103B500027FD1ED36010353741ACFCFB280B907657
:103B6000660C20FF22983976662C88295F001D6438
:103B70006504CB6C2142F0E1C0D331C9406910A289
:103B8000F9F580453001E99818C1FD600C4C884179
:103B900030C75D7FAC204C5BCB46C9FBA16EA7351F
:103BA0006E98CFCA1180820577E77F02D90361C280
:103BB000118C3D5C0258FF79A5DF76779DD2AB0270
:103BC00038DA46C88052F3E24604DBAD23C66619F4
:103BD0009088D319B810FF49980619D3176481FE4D
:103BE0003C1018FD8401308D5E7CD2D3963020BE0F
:103BF000C51CB5C65BB35097B3DFA2E567F2D9A980
:103C0000DBEE5226D37C88FD12F3D273B3F85D50FD
:103C100046F3F6342C0411E26611C9ED64406C22BF
:103C2000C1D304DBA401FB1E418CCEA229F390FB7F
:103C3000CEEB867DA3167A3CB3D8EDD72CA6DD65F6
:103C40004B54FAC2667B1051D2C2FCD76AF378A8F3
:103C5000B3C8C595EDB0E0A3C2C628F30DF0794B0B
:103C600087E6FFDBE3ECD8FF28B36634F3CF316699
:103C700050D38F6CD383FED6D1A010D594025BD7DE
:103C800062CBFF103967217BF9D1FF6AE26FFBAE8F
:103C9000802846C48D66FCDBEFB29F86E6F2FF23E8
:103CA0008C5ED2B11644F92BB74799B1BF5047A4E7
:103CB0002CC6D367EC3228F9CCFF7A6ED8C5FF3218
:103CC000088C20C27FB633D4A8FC06090DFF98FFEC
:103CD0008212BA10D13B90B1FE6D3F32ACC85FEE9C
:103CE000FC33FCFD4810B1FD8F582C025DDBFAE976
:103CF00063663F6CFC4B2C7DD54F05B9B8AAF9FE25
:103D0000C932068CBD5D17202DD84F93FBF22B7C5A
:103D1000C3B8FB80BCEAA4335D1B8CF214C6CCCDC7
:103D2000820314FDB081AA9624D1F008B610E6CA29
:103D300090F8D3D46580B3B910F90DBD20B3019AC2
:103D400008F0A833FECBFF76AF348FF7032880A0AE
:103D50004017F40210EBB9037928B7F83F067DFC51
:103D6000242006AB0009089B15AD24135E6388FA76
:103D70003391016902681DB8506FCEE9FE1C616283
:103D8000FF80D804F6B338FBCCDD8340FE807FD6BD
:103D9000CC584EDBA304206AF86FEBBDF40E3AB1A9
:103DA0005973D90ED8C8FBA7987F5E11A660FA5840
:103DB000F9DBEC8510BB17FD61E96BBF9F11F63293
:103DC0001B2C1980F1D0AC62BC7D7ED841F2B002D0
:103DD000CDE5981099F532E6EEEB45041859BC088C
:103DE00000BFD93EDBD830FD73FB8F2019FB7FD697
:103DF00090041176F404C51B4A90FF05AD5BFC806E
:103E00007ECD01C7B6A7C47733FB6536EA08021B2F
:103E10007DD0FFE9B434306644EEF9B8FDC63CBA53
:103E2000C37EB0B1B74C77E31C4FEC9F48FA12FF4A
:103E300032406090B3D1D8FF5B8AF53A8EAC9901DD
:103E4000A50E01B6DEE3B30DFF121511FEFA8DA823
:103E5000BB82D529BB468EE2D8CEFFEC51D0F9FF0C
:103E60003786E55C028D662D40D9704064732F6003
:103E7000FE61DF591BFE9861B9FF9FCD0E18FF9DB3
:103E8000B2818DDB2C7A2FDE4870FC0D049BF6F09E
:103E9000E6F53271B1043EF6CFB0FD122FEAF20220
:103EA000315AFF17E2DBFD29EDF878FA085CEBA840
:103EB000FAD58F0844E3F7AC22C15640631FDA7984
:103EC000D9E4B0DB4A8A8069BE28FDBD8072B69015
:103ED000E4E64090F6E8DCF0830A19EC0C280D4D7E
:103EE0007380737A4801D32820BF148600E7F2500C
:103EF00031C8240539AEC0FCE10F04850E18222418
:103F0000A691207A504F9B24F3950C38F6498102F4
:103F10005627DC19020CF0FBC008203E8402047016
:103F2000240F148072881253C79E60FD61971BCCCA
:103F3000F57F99ED4B40FF322C080262D7F43F40E9
:103F4000E911AEAC15826B56A920DD7B4BFC815785
:103F5000ECA8FB10633D3963FE5779AFBEF6B6DCC3
:103F6000F927E68037A6102FED7540FA1919C6B368
:103F700079678B998FDDB162DFEC62EBCB0828DECD
:103F8000CC58F4FC75DB1C08CD14FFBA58B1FF9572
:103F90002B048D6A49208CAFDD6C3A14FCFF949899
:103FA00023D972D8C0C6F650EF33BC555318BDE3C1
:103FB00083409ED62BA0ACE72F5805C86DBBE30805
:103FC00012FD1BFF8D719F85BEE09B98B3020DB261
:103FD000C6CF58C8D8CA19208C647D48806E0F237C
:103FE000F653FC518620DA1128EE9704B6C996E202
:103FF000412DD5B6EBAA069CD76008021DA030A6BD
:1040000068EE21F97EF301040230FDD38F10FA40EF
:1040100016D5FB3FD76B1EB3BAB280FDE8015C82B8
:10402000DCFC60C6BFC0C6389B60DDD06062BD806E
:10403000BD0CB3C0CD0218FBE0CB873025E4F0BF48
:10404000FADB178242FE79FF2DA4A1CC3DEA636E14
:1040500066084911DFE57873AEFFFFC0F98045308F
:10406000023EBA8258042372F04C84008BA3713B49
:1040700060D8AAB5B0D3F73B8B2EBA21165C80A8C6
:10408000B4B21958F953C53C90F9F0001EC0034A68
:10409000A20F462303F317FFCA3C8801B90419583D
:1040A0009B103D01852556E9D520E6E51050FCC35F
:1040B000E809187503F7EF12B61B1858ADA1B5BF84
:1040C000F4DC832066B801665E6DB373B9E8FD73F6
:1040D000FAA4C0B24017B3142CA60B59193468F9CE
:1040E000EC23400ACE1FF2C6B02018F87FCDAD2ACF
:1040F00040A0EE046CAF0201980A62CEB380420485
:10410000DBCD2B1B5A9210FE45B24BB4FCF02E6E49
:10411000CB288CF853B6390CFF3696309425D40D45
:10412000DF3BBE70F9FD982028D9B9DFB35906F6F8
:1041300061B1102E4EDC04B38007D9EB604782FDDD
:104140009234FF038264CBD0FEE0F233DFCB98E5FC
:10415000A8F304A262DF7FBC20BCC95A3A20200B1E
:10416000807A1BFA84497305C04258A3045E98BD47
:1041700045DC18D8058BB7CD7F9B05BFAD522136E6
:1041800006D1B5018D1041AFFB159868EC98C803B6
:10419000264F809862DE98DB0C907D80B35D1E0810
:1041A000721924072C2058EEF9880132663C98DBFE
:1041B000CC8B5CFFC8356636D3E8B13D1BFF809CD5
:1041C000B3D34208F3236162FA1CB7020EF6DC197E
:1041D00067A790B904D8AFFD5DDF81FF5150032080
:1041E000442EF9E3A7FE76C59F19308240040810DB
:1041F000E5F8682219AF1E305532B9A4FBB4FC8E25
:10420000C717BDB39BB969638B1DB3A41D8C1188FF
:10421000ABE6A0C84BE08661F279037E763080037E
:10422000622BCE30388005526FE418DFC598F2EB70
:104230000C41BB6488AE09223F530072F3E2FD4398
:1042400013018BF764220123D59BFD11FEEFC97882
:1042500033B0201AFE1848805F06C2105804D713E6
:1042600051A69841EA46B54C0462FD1738BE05C018
:104270008EF50B11B7B6989104BCCADD0650ED98C7
:104280008007DC302FAAF198F3A002F34C5FD99895
:104290008804D3CB1610195F5798305A84F030F445
:1042A00063FB84811F7FACE5509E433003633E98DF
:1042B0005B7636C310BC3064F797B1FCE68011B072
:1042C000F7C4E59624E4B39C77AC986067DA9888E5
:1042D00098FD8204AF0B30AB5DF5E33810C0C930F8
:1042E000B5EBDD1102DD1B4480AEA63F1AAE628C39
:1042F000834B356810E3984403DB0869F130E43CF4
:10430000C2F7A44090FBA2DD80BFEF2FF5A0061CF2
:1043100066EB62896710D87F198D2B4608F83099B3
:10432000BF98FDEA08EBC8C180963058BE98298630
:1043300061790188F868AF23AF99EDCC1680B83069
:10434000DFF9688041BADFB8FBE5A9F1F70B74FC2F
:1043500098889EB86C38144D64842B98DE98404839
:104360002302DF88302AB3DB084F4C62FF80490606
:1043700009B7085869FB3211DE20401013609BDA40
:1043800009013FFB825128FE322327C598C13CFC1E
:104390002C8401B0DDB1FDE1987EF0401EC483BDE8
:1043A00098E2AF41AC69EF2EC083CB0111741924A0
:1043B00080041981C01A7F9B98E61E0F627D1CEF56
:1043C000F0F9E17D9A7799985C3071669EB346ED7D
:1043D000896604E05E9864F6640CE62E99FB7DE045
:1043E000A01002C2CBC0205F2F981B4BDF04146EBD
:1043F000B32110E730584003BF64CD98F493871978
:10440000CD50F948C90213D0F150B688F59802FA98
:10441000A27F98988F34C58244CFEE010809F498A2
:1044200004CBD5D00F6F019878BDFAF7C177D92C9E
:104430009C382CEB57CF9736D83FDBAD771F193020
:1044400020E0FC4079BE3677035AFC30BD18FD40B1
:1044500046DD7BFF2880B9051103BB10D0982C974F
:104460005A6E793B7F851040CDFD2CB880FFD7B5C3
:104470000AF49840AEA386CEC5556410C430B80681
:104480000A85AEC690388F04310332F8AF84F83213
:1044900026C044183808501D8C8051AA6688EFEC5D
:1044A000323130438FC4F932BAEB436002DA9820DC
:1044B0000922F58357B382383080F8E85F3D8807DA
:1044C0003400F51EC40349EB98015F0398782E7DF4
:1044D000CBAE3DB32472190695E020EA981CFED6B7
:1044E0004006F319B930D8ACFFA2C8E3F098575191
:1044F000F8E5B695EB37BC7EC51E6610080362EC86
:10450000D7C8201A7DFCF39DCAD319FC690FA72DCB
:10451000D70B7D98A070F3B1D355B310DDFEEE98A4
:1045200040231593FFF632A7197330D0FD030834EA
:10453000EE8420D1E818B4449F69E598AB011214C9
:10454000EA17F66BC2085FC0E79837949008FFA897
:104550000D20FB112604B8FEFA038BB4E859B4DF32
:10456000D0982118B78B98732B8B64EDDF387D9A28
:10457000E738FD38B9B4FE5B30037998189F964A46
:1045800098C5EA64D58204AF8B98FC6F5D4B02FD41
:10459000BFA8FF6E994063F4243B8F303B26F4FCA8
:1045A00049E1627B49CD1011D2D41FC5E798B4A16F
:1045B0004498A8312F80C1027AB830EE8BFD18EBF9
:1045C00002235035C809E7E4E9AF17B399FBFD179B
:1045D0009F0966460222583AE06212F398D766595C
:1045E000A09AC440B0B5D8E730201EC0DA83586422
:1045F000C8BFFD8E30F098ECFE6E308024FC1C1E8F
:10460000DAC578F130668E08EF57B5E03B3028FE0A
:1046100080FC9813B830CAF098161027CC7D8128FA
:10462000DAD302F21040C9F9CCF85FEADD39FDC8EF
:1046300030A27402E0BC40B38EDC00D3C4F930A0D9
:10464000F5091080469EF540136413F8307B411045
:104650001820951984BCFDE8FD40F53492F1CC6B2F
:1046600041F7B84D7DB617E4C0728804585CA7AB1B
:1046700098D258AF600816019E9809AF8E98B40280
:10468000C0EE38307AB2A2DB28AFFB97EC20798BF2
:104690008A7998BEC0536F9BF00C9ABE38FCCBC889
:1046A000BD5D062426BBB27279300FB1605F1898E9
:1046B000B31C0BEDE93C9885152AE334FFC8A6F836
:1046C000AC0840E5990A0B99D5FE5B74AA8908E904
:1046D00062BE9890C4C5B108495AF5C575C8FB4972
:1046E0001B1204F2C8FE8441F622EBEB819F698223
:1046F00045400449698A89EC0C888143F332119161
:1047000026032298C10813F7148C41218B662DF7DC
:104710004050FF301208FBE8013C90DD03F0CB3045
:10472000017F3F98943003F3627E98AF3157B58292
:104730009F6BEB98705E493064B9C5AEFD6D30205B
:1047400004B4E95BD68DC9F3848AF9980F469621A3
:10475000200CBF40EDCC8BE69E30C0FF9001B83FEF
:10476000FC9BC8DB2897C0127A98A06CB32C4BD660
:1047700098119E9869E46BB721BF170C7FC5105143
:10478000F2B020B8FFAEBCC5BF7F41066897A10854
:1047900069D9A798989F5617E513C0DB2BE02884AA
:1047A000F710159BC8424FE07F10846F88FC25DD11
:1047B0007C100D26D98092C8622466D9771E4FF7E7
:1047C0006BC4CACB6BEE9820E8FFD32EC8FCB9614E
:1047D000B243BC98C497FF6065C8FB19B538F5981B
:1047E000E0AF9F4BE598C5309AC8C02DA2B629E727
:1047F00030800488729150C8357077F8088410664C
:104800002D1A6DFA487D98D068CBFF4C2801021014
:10481000F8FE80C1493099168F98C0DF6044FB8C48
:10482000204CAEC8AD6736ECCBC7560E8045B930CC
:10483000C1C60418C70B2069C030B7221073092CF9
:1048400004CD40209EF87330880781F41EEBC0032E
:104850007835C841F1D6DAE5C80B564A536654ABF1
:10486000689ECA19F040066DD35946190C0E8BFA92
:10487000A484B9DA6EFC7130FC8A64F33002607093
:104880000FB5A65AB350B5B38801E198111175A7B9
:104890007154A197FF7F778B986644B322CBB3A363
:1048A000E2D6B310BE9846F6C666EC118021CC2243
:1048B00016AD828ED596EE81FCC84C194530CBD40E
:1048C000FACE1833FFC0B33C46969A0224D3DF9C3D
:1048D000F9F432E27F99DDC6F3269F718189B0D366
:1048E00078F91858FFB12097E498FD2C6151668E35
:1048F0003139E3F81866796765110EB1FB31FDCCEB
:10490000DBB0CC936DA2806DB65BDC7F7966FF5423
:10491000EC90F808C351CDCCCCF3F3FF73D351F333
:10492000B164BBE3D3FE30048FE8CC88FFDDC93728
:104930007D3145DF3C826F59BB3FCB4D5458FE92D1
:10494000DC61AF9BDAFF9CA8FD6151C175718D2CB4
:10495000E2D83316662129DBE5FFCFF9CBB62FB6B7
:1049600079012C6478DF80B2F3D66DB53CDD5FF859
:104970009FDB28080B525904ACD58178B3F8CCE4FE
:1049800074C4967320C65A63CE0868ADFBC80C8009
:10499000AA6DBE62184E31E99F23E61E45AB049412
:1049A000AF43F79A3098FBB605B8A00449594818A8
:1049B000298199AD30EC4702445DB4A0813690F76F
:1049C0004180020A7E2785E6AC14083BF4307EB9AC
:1049D0001068F802215DC2E536A78F784F32F419CE
:1049E000D1EC02066057B417846FAC1CA253A9DB4C
:1049F0008AD21A10D074FA1621F7D9FB12DE0246B9
:104A0000FF18FD79FF7AEDFD82403A07D878669865
:104A100011F304BA94C53E73D8D7CFEC8C41F2E6BB
:104A2000F8F9201BB497D3A353161C1C74AAECFFEF
:104A3000B8FF303FC22C0A49B39080F9C121FF98DA
:104A4000628B66800A8D5AFFB390B0FBA7AC3579B4
:104A50008818B0FFFC235B877E07D0C416B30149DA
:104A60003E858CAAC8FBCDA830F9C028F5039CCCA4
:104A7000581D205C5DB0FB55FB320FDBFFDCFB6C8F
:104A8000B5D5CB6808FA78C55BE8B0FD37EC8A3A53
:104A9000D653A8FCCBFB3A0F350888B0FCD5C32809
:104AA000622DEC30FD8277EE3208FB7F088CD277E6
:104AB000DB31C0FE10D34596A602187900662EF8A9
:104AC000D3ECC1111619FD2FEBB40812E2DD0A4E2A
:104AD000FF31702FEF0238FFE4BC01B0DD9183019C
:104AE0006FF6F97F0F56F3B8FB4261A72C351245DC
:104AF000EC686FF67F083FC4DEB8FDBE8E01C38D43
:104B0000DB9002B0D2B0FC2D423D9A047FECF44021
:104B10006FCDB3F75C10628B84F98CE5B39F75D1D0
:104B2000808AF67D80D5E00129F2F34079F3EE86A4
:104B300038F90A501DDC7A0877DC100442662141FE
:104B400065FD04EE8C75E811D0E095F7F8FCD6E031
:104B5000D4C8FD5305F91194E202080AF24A012A69
:104B6000EC61AC14CC0AFD181929A7D8A02592181D
:104B7000644CBCCED80C28046008BBD454EBC710DE
:104B800040872104E708D8FBFB2006FCE4115C41C8
:104B90005268F8EA4C01C0225F844A02D082FA408F
:104BA0002018148133DF831A94C6268C51E06C10D0
:104BB00021AF066562102081EB62FBFEFADFF7672A
:104BC000409E4CC92C9B24CDCE08BFF45618F9F258
:104BD0001F040122C720E41402B65FBC0073A810B2
:104BE00042F7E9C4BE7F8D6912F341F7CBE5E2904D
:104BF00089F564C6A535D6AC57ED0A01F27C8BB3B6
:104C0000A82EC7C38E5B3201BAEC8030F8FBD87394
:104C1000567F306FA1A18064B0F570FC1865DB632E
:104C2000883CEED8190544855A7C5EE50B0240624B
:104C300099C8B7FF301F9F8C2D54E876BAD8FC89ED
:104C4000B5109419FF3A63B947B740DADF33D2B9E8
:104C50009D70A3F9E611588C086460D840FEBFCB64
:104C6000049C0956FF10AE1940C8FBDFEC242658FF
:104C7000C082B73D2E80C8F808BA2B02CEEB2B18A5
:104C8000FB2B14683258FBFAC47D7A4163CB2A02AD
:104C900030F0F67148FC0584CDEF889299BB29204D
:104CA000DBD32401114A6D10E5E165C2828C11E06D
:104CB0007A6D100F0C0D204DD398F9AAD918C4B7EE
:104CC000AB30635DEFE50C0280E0B8F304F3EFD89E
:104CD000FF60F34437F6AFC02BF7E412D37206E659
:104CE000D20F60D8E0B9510F81E02103F8F96808CC
:104CF000DE8258B266A05930312E9BB1FF1ABFFD3B
:104D00000C467C89B2500CDC0DA039E8FF8005957B
:104D10001C24B2089DB3090302E0C499DF02A35129
:104D20006946D6040C5AF3A5E00B5CE0F377FDE08E
:104D300022E470591E5E0CEF06C00359F83CC418FB
:104D4000D3D28007E00893430EF33C7B46C082DE5B
:104D50007820F397B8662BB3404C72A6660803D050
:104D600019CFF368BECF8BE0F9C2100CF36AE0A351
:104D70000366D7F3FCBDB3C044180497E680ABB319
:104D800008146FB358081019C01A2EB3641D19F314
:104D900038FEEB56903366A48608E39DCCC7F2FF3D
:104DA000F098CEF55A251A81FA9849BD6708130183
:104DB00004771F30961B507BB359BCACDBECB3DEE1
:104DC000BC3776970C40B69AE8FA86B36676911CA3
:104DD000C06F2D77088CBF9E5B830F9FE9B587AEB0
:104DE0005A38FF0CF3B333B61A1AC6C433ADBE2219
:104DF00001BBE050605D6D9D28F383FBEDEFC010BB
:104E000097E24B99D3DB9830123CB4F21576D3601D
:104E1000440AFE4BD79340B0CE45B03741FBA15575
:104E2000F0D91E6BD0C45F3198266607015FD3F6B8
:104E30005CCFE0C00278403FA3013C2090FD7BB3F3
:104E40004020B3180CCD4BCC98DFA37B667F249811
:104E50009C81E5F31BFA4E9FE54BF6AE38B35F51EC
:104E600022B43772E08B6011ED29F3C1E0FE8E842D
:104E7000FFD91D02DA689B804C043F4B5FAD3D7843
:104E8000301421308BDFCB76CE3FE0FD5B58F9F854
:104E9000F458EFAED860E65970BF1AAEF0163094F1
:104EA000779E98F3B3038FC1F3627E0B300A96604E
:104EB0006189B9021A48E9097AC8FC00EFF32612A1
:104EC000CD810A9AB3DBA001F130111B8BE81908E0
:104ED000ED1E7EB0FA80014DFFF04499B7E336A194
:104EE0002C04299B2B4647F9240A80B509F7980220
:104EF0006024389C10B01F78FEE0010C36A73067A4
:104F0000B6981E049DD1D90C10E7197998FC303B56
:104F10001CE0415F69988178E680FB3C2058FA8468
:104F200012E330FA23C4BD4E4169C7302D930AF80D
:104F30003003BC98996F68FEED8E106CB3284DB3AA
:104F400010B32296B311DBE3ED201004DBB3136141
:104F500093B33119FA5FC630B4149979C8964239BF
:104F6000A68C7FB69805809CD93DDE210484B6606E
:104F7000C8097D0D20080602652E8CE5C89796FFAE
:104F80003599A840394D53D8FAFB730240CC59C922
:104F90000846F956C7306E52ED200A40F2C8F13B80
:104FA000D2B410DC96D026FEE56679438A7A984022
:104FB000E0E79620F9C80A44B83074AC51FB53F5C9
:104FC0002216C042D68B7866B1D316260886FC9E80
:104FD000D5B40A8081D730C8A3B51280EEEB024960
:104FE000F8B96A80D907F4B9C82CFD4F2BC8C89806
:104FF000D3FE76101A1008F9C8D702183E7A410C71
:105000001050FCD32B8BCCC5C3671CCDC804723D9C
:105010000ADF561583BE7ED30AFEF71106ECD028B0
:10502000189219CBE81677B3090240713072FA244E
:10503000EF34987F1923208440820510E22218FF64
:10504000180211A1EC28809CC6E84262DF7E5E98BF
:105050006B90C86B818D3072C8B9080D5F651B50AD
:10506000F864182550FF6DC684FE78AC209D21F3AE
:1050700030FAC4F5E96E7C464335EB980CCB72B63A
:1050800017404F1230ACE0B3C890B4FBEE301402BE
:10509000CB31CCDF2498AF68164717301209E604ED
:1050A0006502FFFC2153C0DB98B37A26C2ED116381
:1050B0001E98D20A16CF11FE6DCA41B01D8A226019
:1050C000817B98B010CD48F8BB0CD9B2B21E33E842
:1050D000F0161EC6FC986B690ED5E220E6984721B3
:1050E0003003A6F3B8FF68B320F0D72DC8BC8BC53A
:1050F000FCE5BEAFFE1B7DA920378930F379AFFDFB
:10510000D7C305993B2AB3D031D365B351ECB388EB
:105110000222C0CBE63040A295F358DBFE84FF614B
:10512000026479B4B1F48966C835FCAE9C0EDDC862
:10513000CDC8107D36F9C8B4F8C8FDACDF31B87CF5
:10514000D1C830B5A9E09F9DC838FEA1CBE69CC66A
:10515000BE2FB5EBF97F38236AF46FE09857979824
:1051600096F074C8FD08C5712697BBA10115D996A4
:10517000B6BC342757855B64FA785094BCA0F3DD45
:1051800049FAF572F67F479198F3BA1942C45B1950
:105190002601F5C9245C306BEE988360817D99050A
:1051A000B0108916B36CC8F08F00986DF340B93019
:1051B0000C624B19075D375FF1988359C8766BBB5A
:1051C000A8B5FE20D6FE564BC8F36566208A7998AE
:1051D000E1021BF9981A6637E622FD19198BB3D044
:1051E00023AC1FFCDEC845B37F5B68F9986D99DB83
:1051F000E39B3066FEBCB2DBFB7F2004D9668842AD
:10520000B1B9016A246770C9D7EB340D30C604A662
:105210005BC877174C017FB6F018F87FDE4C196336
:1052200019D5626BEA20FD98E0B2FC96DD039F7F02
:1052300032FDC89AC4FECC6F3038D5F910F9C86C6D
:1052400004DD0242F3D4E888A5FB7B0A2C64589F56
:1052500037E5F6251009C44919FF1A05AE5EC82CBA
:10526000597344F8F3DE78FF5FDEC01099BC2CE37D
:10527000BB8509EC0B624048B3B57C017782987F0F
:105280002D30095C8B122011CDE630F3A034B30C25
:105290002026BB1EF6B30FAF0C16C003787F193063
:1052A000A5B4BD630C90DE985B498810BCA5036E65
:1052B0002F309DFFF3A0FBAEEC9618AF155BD6F632
:1052C000123597C819C3BC30CD403017FB2EB4013E
:1052D000DD490494B3BC40B36CE20850B38BD3C92E
:1052E000B9B3096BC93014E69D10F338FBBF989829
:1052F000971830878AFDBD48F9829BDA2429F598F2
:1053000080AFA79802E609A42DF73C98C325FF04B7
:1053100095D24D66B2BB25FC88757A75CE8B24BFBD
:10532000406EB5232F813698E59A4117FA46CD474E
:10533000B36909AF9998E6296F28282819D5F5246B
:1053400064FB9860843F6688100440FD6DE698E336
:105350004AF322B6585A5C017DC2B6D7D23A4AB156
:10536000082648A402BE1C0A805160EE1669EA8A2B
:1053700040E105F7900838F9F898B226B8305AF3AA
:105380008DA6E604A966ABABE8015C3011FEE22B0A
:10539000308630F30480834F7863E0803C1388FCD0
:1053A000783BB28DF830DDF3806DB667ADB3880120
:1053B000BF177D1E30F36F98C8311468199420957B
:1053C00096B2057830DDB3106C036AB36EC04AB094
:1053D000086DF30A063D98125FD43BF350FA3FC8BC
:1053E000E8E8DCC30328B3C7DBFF68F95F5778023E
:1053F000D70ADB217D52E6F32BEB4B1053D32CF372
:10540000E688E8FCCFCBB10DBD3A013BC9FF2C13B8
:105410003093BD662010EED3FAF900CFCB37731668
:105420000AC4227FB2063A0BDDE04041BD11F36DA4
:1054300096A180E6C2497394B567FDFBBED94E9C28
:10544000DDDDFA08E6E7FF8A6C5962C2FF31D4E07D
:10545000F3242BE915F319D8FF30227ECC2198D301
:1054600098FF1624E6A1E36D9A482CFC22E57D40C6
:1054700096EE5D1761F9FFBFB62DB8FF1198D2F710
:10548000EE6A801D3212FC0287666C5FF0F2A8FCA7
:10549000182417FFD87F219918FFCCB00181CB4089
:1054A000652CE102C112FDD9D8FE6BC5081D5C69EF
:1054B00080B20CD9D904DDEB7B77A0FA5E8871113C
:1054C0002EFCC15AB360EFA54021624EB3600301C8
:1054D000FC8AA898FB4005CC854E036C600AE0D698
:1054E000FC4880CECAF565A10501CD8BFECD1046E6
:1054F000B97A2522DBC397B965BC80F9CFF3832045
:10550000A5C2D6FFC9FECC31BFFFDEC510E067FDE6
:105510007FED8694F8825F98983D1BB3FDB788F3C2
:10552000A9C8FE627E6461AA66FBC1411920669823
:105530003468B3D8D8FDA79867FAAE40CFEC961080
:105540000A68E330047FEC7DA8F94CD0C303A7D6EA
:1055500019FB0D1E98B010A9021073664008420195
:10556000F3C2CDDB9290F53BE7B8F75640FF0186DA
:10557000BA285F4067FE2FFDC183F6CC0819ACB393
:10558000901EB9CA20634DE3B8FD7D739BEBFD808F
:105590001F58C402876EA6A06C19FC809F0833F3C5
:1055A000D696E3013DF6C45AE001FF76E508D0F84F
:1055B000AB7D103085C2C30BD6812009DC3061770A
:1055C0006CBA8061E518B0FEFBAD6AFF9F047919E3
:1055D000661401CDFBCEF2E6C6BF8880678FB3CAE2
:1055E00008B8FC7A7D20C53DB420614F5756EB7B4F
:1055F000E8D49805F62C934B910B10D88FEFCF027F
:105600005CE008E5111EEE8B34EF88F9CCC0FAB7E8
:1056100015D2F930DD06E4DC03FBFB14212008552C
:10562000080C9C65D12028C2EABA085276288C1250
:10563000D10941A629E870F81C087C2004364FE700
:105640008F10F34802A4688C08D9A650C22AB36907
:10565000900AF960F140088014A522D5AFB919204D
:1056600080046FC038FEB101BEB0D199E3804D61B6
:10567000B8FCFFDD65FDCC113F5518E0CEAF1E80B4
:10568000E8CD8DFAB2F6F370FD21DF62FF47B1403D
:105690008EDCB980E219B853A6EDF3E4F9D7E35DE7
:1056A000B12F51E304508B2C9B019D68160880F4A8
:1056B00065F3E0B38219FFED7498FD9FBB57020BB1
:1056C000B642DFFAA230FF31CD7ED8742053C47DBC
:1056D000F3D86CFECFD89658685CCAB1FB25B308E6
:1056E00099D6AA23D62B71D0EDE9A8FE86AB710816
:1056F0001158F4982669158DF5C584FBC6B002B81B
:1057000019C7F74110616A1904C69F5698FAA0019B
:105710002459C1894841CC220292011A34E7720807
:1057200002096BC60D7FADA750FF8B04796197FC12
:105730002660FEBFEF6DB0B4F857F318EE4591CD7B
:10574000D88B5FFD8076697FC07B825C0876CB8CCE
:10575000F30A3AB157359B55B040B0F9224024C006
:1057600010A053E8A9B308C746822C455BF6DE8437
:10577000EBF6423FEB7A67E381300A3BB382189441
:10578000BF2CA23E5701041011F6D605B2C6576BC6
:1057900012B2FA460166DDED50F3F9E0413CF9F052
:1057A000171ED09901E80FAFFD3C9007F0801EEE68
:1057B000E4E0013CCEFDE760BEED1B18161907576B
:1057C000F27F90FE09EF84D96BE30349721920B789
:1057D0000616D6E6A6DA12F2AEA87919053108B394
:1057E0003BC0805141B346F6C12818112CB3B38198
:1057F000790910B2045F19F8F93004A4739B1249B7
:10580000BF0AF3630467D01203D5E224B1068F58B0
:10581000984087A698586641D7DB4003017E331530
:10582000FDEC0C6AF8B186BF65D7C8FB72ED0218B3
:105830000869AC126EF3C0BC46D57708631C1FB173
:10584000100F7E9850FD0C113112E05D96099C06F8
:105850005E3EB622FD4C908CF998E6BD6678A13389
:10586000F904FB200199B3100BF9902C634231B37A
:1058700048DAAC76B07FB6AA1657BE9809FEE801A2
:105880003DE6C51EC095AD0FE34866F02DDD5BE239
:105890003C0818F598409FE39884FE37D0311BF7F9
:1058A0007A9810981980084D7444030AF9603BFBFC
:1058B000FA9009B0089D19A01102C7B375577DBFB2
:1058C0008B2C19809E33CAFD9838FBFFA009022259
:1058D0009DF6410801FE981CF6DF181205BE98B12E
:1058E000227F6C090802FF1D98C7F980B1F688E98C
:1058F0009185DDB19BFF72095FDA1602F3308040BB
:105900006AA75C16677D7F8DF330D0F8DE8805F3DB
:10591000B90271014A5F0A4667986C52679BC3AF30
:105920002B2132F0F33FF0F2FC800530B295A0114C
:10593000B9E04CFD5F72E340049835591921F984B0
:1059400066F69E26CAF79860FBE0C0813C64F99831
:105950003BF3B0401E55E21C9CB4C0E041633C30B8
:10596000F658F884015FA898304839F362BE9896DB
:1059700080B332FFDAE8FDF04AEFC01301F298F786
:105980004B02180562BD64DB801136F640417F8F03
:1059900098ECF8A01168C6DD412098C810DF1240CD
:1059A000D4881A01AF6C330963D79801B6A30610E7
:1059B0004A1918BCE5CEFC46C0B1D67ED9B940BD67
:1059C000FE65EFC248FB5EF0B710F498409BB8F05C
:1059D0008023ECCCF5B4019EA9367010EFEDFD8864
:1059E0008530B602F2986E390480D3EF5F59FEA07D
:1059F000CD5EA09193A6FC7AFF826219055C08A097
:105A00008421BE7F560CBB62C008596E59CA0ACBAE
:105A1000D010373DC810C40893AAAFFCCBE24F2783
:105A200098FB0FE281F23C8007F2F3DB8C307FC001
:105A3000986DF040C65D24FDBC981B53E3C0661012
:105A4000669B7CF91B203FACB1DF9627D34BE2A1CC
:105A5000FCDF8011F9CC1848B60116B3462DC530CD
:105A600096A367D1CCB39019F7A0FF3044B7E812E2
:105A70000920D4216704A27002126FA6CB7FEDCC5F
:105A8000018D2DF7D45A6EE3DD90FAE6E577ACFF91
:105A9000082BDB5176D348FA5E269B7A5303F695A2
:105AA000C220DB2CC8FCEC73E081CF957F19FB454D
:105AB0000423B7170CF4B1AEE32F92465011FB103C
:105AC000464002487DB30EBC985939849909B70203
:105AD00056EC025FC8CB30589E730C025080661B98
