:020000020000FC
:100000000C9425150C9425150C9425150C94251588
:100010000C9425150C9425150C9425150C94251578
:100020000C9425150C9425150C9425150C94251568
:100030000C9425150C9425150C9425150C94251558
:100040000C9425150C9425150C9425150C94251548
:100050000C9425150C9425150C9425150C94251538
:100060000C9425150C9425150C9425150C94251528
:100070000C9425150C9425150C9425150C94251518
:100080000C9425150C9425150C9425150D0A0A0AB7
:100090004C6F6164204650474120636F6E6669670C
:1000A00075726174696F6E2E2E2E20004F6B210ABF
:1000B0000D0A000020205A582045766F6C7574692F
:1000C0006F6E20466C61736865722000494420663B
:1000D0006C617368206D656D6F72792063686970FB
:1000E0003A2000004F70656E2066696C652066726C
:1000F0006F6D2053442D636172642E2E2E00534485
:10010000206572726F723A200000436172640000D1
:1001100052656164206572726F720000464154003E
:1001200046696C650000206E6F7420666F756E64A2
:10013000000020656D707479000020746F6F20627C
:100140006967000045726173652E2E2E000057729C
:100150006974652E2E2E0000436865636B2E2E2E6B
:1001600000005375636365737366756C6C79206307
:100170006F6D706C6574652E00004552524F5221B0
:10018000000048414C542100400000000095480008
:100190000001AA875000000200FF7700000000FF66
:1001A0007A00000000FF7B00000000FF5A5845560F
:1001B0004F202020524F4D00FF1F627FC23C006045
:1001C00088FFFF8008900122400488C60011850343
:1001D00002E24410015C41F39320F5E6101A00CDD1
:1001E0006EFF0C1046D3086CE033F306D398E92079
:1001F0000364F301FFD8FD0015E0025480F00A50BB
:10020000012AF30468FBA0DE02B4F3E64005A8E689
:10021000A01B39B312B9A0D3D00DB0E0CEF30BD3ED
:1002200074C005B838F30270F84C121BFF98FF0237
:1002300029B38048FC40ED1DF458FF02848BCB406D
:10024000085BA870FD035BECCC0FD3B303F4B3FEE3
:10025000358658F806D9DA84BDFE6DCB28041B76A6
:10026000DA50FB08090D1981FE824FF6CC89FE0990
:100270007F7FB004486CB3FAF90FCF304B7FFE7F1D
:10028000D8FBC12CB3C12C19C127B6B19004BFF65D
:1002900032DCFB071FB64BABFC0C9C3060FE1960D8
:1002A0007E713083FF7617B2FD071EF649C9FA0743
:1002B000BF18301FBC30607EF130BD6C73182C301D
:1002C000B33F6F60017AFAC8C10F9BCA1820DBF9EF
:1002D00038FE042DDA49602CB3B010E9F860BD0295
:1002E000F9B866717D81FBCB301053F81CFD52B319
:1002F0008EE6C802DBCCB722588DB9EF2DCA045662
:100300006602112C66E073D64B80ABB35008DBB3AA
:100310001BFD08C56611844D19F8FB825AB3206B8A
:10032000CF80FA520240593C01C6F371D18D98D367
:10033000277A9828C11C66C13A6C77123ECCC13727
:100340006C49096FB032ECB3C0FD30B33F4CB30F12
:10035000D3B303F5B3106090B3B0CC4CBBAD038402
:10036000B3C0FD30B33F4CB30FD5B340A9B381E365
:10037000C6CA3EFF607EADB32056B3FD092D668927
:10038000FE8212BA10D466C3E3B3793819ACC11F28
:10039000EA7F3B3A88FE03970CE11D3E32C0FDEB3D
:1003A0006403F4B3C3FE307D7A5A6634678A030867
:1003B000B6444EEE02FD6001FDEC9310FA2D58B3E9
:1003C00030CE762DD8FC19B6B3C0035BEB781003A2
:1003D00080413BF968FD0CD8B34090360A4BEB08DE
:1003E0000144FCE4B0F9B9B3206BCBD8027DA44F33
:1003F000B90CD1FA011985CBB33C47198318206C8D
:10040000EEA306194D6C1218FD34E54483B8F0DAFA
:10041000BD041CB56661AE76895040CBF5588FFBA4
:100420005819F049EBE52857F8B40114DA8A067A2E
:100430009841D9E45AB608F59838849DFEB50C6504
:10044000F886011AC0B3EC034BDB9880F80AC6B3F8
:10045000B73C8FFC0E18C9FCCC7807FB9808FB1939
:100460008426B4FEAB9B05FD0940B31604FF6E9BCA
:1004700001BA14D8F6C1FA2C2B60B330285FC6ED50
:100480005902849186E7DE98D831FD5B7EC42480D2
:1004900007EF169823EBEC16CE19760AC8FF041561
:1004A00009B3806669EB040123ADB4FD983A82FF7D
:1004B000C2C5B310A0C7DBF9222DEC90FD981861DE
:1004C000660F94B7040AC26DD66FFE4B6FCB30FB3C
:1004D0000AB200F01E8CF3E36F5898F859BE4982B7
:1004E000012DD7F67F60EBEC1E7E763028FC0C15D4
:1004F000FAE5103C090A01427688B6126BE4420420
:10050000EF7C6C602AFE2FFD3205AF9BDC9BEBFB82
:100510009868FA617FAD98043830DDEC066FE0989A
:1005200076FE0C157C7FB5C86C6603018EB764A59A
:10053000F781849C30B7043519DC5023B7F9CDD24C
:1005400008B7A598B019854A6630F598C0DC8D5A71
:10055000BC64E6C86889B34F3CB0FBAA8530AB9E4B
:10056000ED7AFF60D3BB9FA8F80B3BB181A22C7D35
:100570006CF80320D5E6E02C565024ED6402B3F865
:10058000041089090176CB49FD274F15D1EBFCB04A
:1005900063B119846DEB98133337C804FF7FB1F84A
:1005A000615FEF3229F3983F3BC80810FFC930B0B4
:1005B000FEAFE032B6F49880B2534896B68866191A
:1005C000C2436D63196F1698B55F1A7D2CF6B8712A
:1005D00066806AF8B2887930C07E76C828024EAD4F
:1005E00019081B89E8FC08D666487257035906DFCC
:1005F000FC3B1870F808C566249DE098D95F7F41E0
:10060000195C48D8F808DAB302D435D7A5C3D3BFEC
:100610008198652F98116CA47AFD2BF5E581B7A51B
:100620009890A89314FC69734F50FE61A700306541
:10063000F13035A7E041F6C33B9BC8083BE886662E
:10064000D406DF8D30F51519639C306FF687571986
:1006500030D5025E016BC63011EDE3BE7A3FA004D7
:1006600026F398FA6FDDAC827A40209B4468F90B40
:10067000EC7ACF0EF7D0913B1E89A97F668019696D
:10068000E998C076B2407FA86069FBBC300B69ABCB
:1006900080779998E6EAB9BBC18AFD6157AD4B8076
:1006A000BF32236468620B21D466485D6167E97FCD
:1006B000E019047D19113E987117EDB0E8F9857CB9
:1006C0007D6E66B10325D3F9857DFE7EEDEC0216C5
:1006D000B30AFC7D69F57FAEFCD0FE10C23D59B671
:1006E000010755F1301B5EE147BF2C30F8774D62B2
:1006F000BE87D5F8116466D540DFC3E6B658D57815
:10070000EF98E5872D5FA035FC2065342E6020161C
:10071000775AB1E1478480AC117FDE985E4C019935
:1007200097F898FB577760AD160528B63B28669575
:100730005511F67C1776640CDB8D30DB1906086EDC
:100740004730F8671819FA0E05CECBB57BECAD48EB
:10075000FE2E8DA901FED287A30466ED4936B3D0E3
:10076000FA17C65CC4D2E360DA20F2B21ADFDB9873
:10077000B0FD0B64DD035ED9FE20FEC93B65E8FFDA
:100780000BBF7F8869E598A612FDEB6F9BC8F90A3D
:10079000F6A06D73343D98236646FA0AFF6C98CB39
:1007A000FA23D5AF10BE407BB412BF6004028C7236
:1007B000EC16DFC998F2A163BF32B5079D4603B2BC
:1007C000B30CD77D4918200FCD12070293EB988800
:1007D0001C2319C6DBFFD00276661005CAFD6B0626
:1007E00095EB98AB092EFADB542704077AEDA005A8
:1007F00040B1B3BF9698582E46B32CBD22FE59F88F
:10080000FBAF40800165587878B39C8CF3EE58CAF2
:1008100024DBD350FB018243FF98FFB128A3933818
:10082000D1C71B3990FF04B56620858466FF7DED36
:10083000F708CF59EDFD01DF54D8E8F85BB696A76D
:100840009E9EB1FF64ABB1E0EC3211FECC5819565C
:1008500068B1A0B5E238825FD87F1F86B37EEC9B7B
:10086000082158B39059A515E6FD3116D43956DF45
:1008700071C7F85077032571FC0BA6DE2D4C9063F1
:100880007BE367D7F56005DD0DA0ED00105A7A0A0D
:1008900020D1910A6FADA950FA859DB3F6612185EB
:1008A00004258ECC9821018C482EC547018CB6E4D6
:1008B00088FF165A2C40BECCC4BF0D048082C7E20C
:1008C000A9BFF4806B36327698F48FEC297837DD47
:1008D00049409F931119FB614E18E4FFECFBFE0C9D
:1008E000FEC717206FE69C19EEE310C7BD9688B0CF
:1008F000FEB46FC69BE3B8FD080DC09638013ED626
:1009000061096684F844B1A9D3B3109B0C0F7A64D3
:10091000EAD15B80A88FACA2987FECCC299E5818B6
:10092000FFC243D63E369E8023FD1FD8FD8179DD70
:10093000B12001847A13D838FE5DC63C7FADCC046B
:10094000DBF3C8FB0A56BC20291B42047DB096CFBE
:10095000EA7FAC0A99B8F565F08E56F9042FD932C2
:10096000FE83B5D830B343EE11B8FFC7FD01017A5D
:100970007E20C21D58AA6063ABAF0116DFCACCF956
:1009800008616E7CD208044480EE130120BDFA0891
:10099000A954DCA95F32D849FAAFD908FFDA446F0D
:1009A000C98528A0CCB416B350DBB84053ED820201
:1009B0007CA74340E058FB61636722219C84FF1AB7
:1009C000348FF7081DCB6F837A51AB21AFB96686A0
:1009D0009E436518F35F3F77402008049781FC58D9
:1009E000BD07FC8B264FFBCC08FE101CFD4602AF5A
:1009F000CA567C322FD674017FB6D354FA181931F7
:100A0000FE746066515E8FAC09101B56660225DBD2
:100A10006A4012F6FBF8FCC35B6C370C0143FB30F9
:100A2000D1FA097FE240610B95D0FF2CAA118BFF10
:100A3000ACB1275A25019855C35608FB0184CB1841
:100A4000203C9DCFF5E5FDBE99E7FF3BD8A0019680
:100A500097BE5A1D72244DEE9711D9FF80410DA902
:100A600020ECF950F8599720635ED4B1083F5AC280
:100A7000787ECC30CF57CE18181492663C7AB8C026
:100A80002006D6C3400C45F67EE86BC0D3FFECF2DF
:100A9000D8F85C7F6C194945EBB44B78043C33695A
:100AA000B40236A87FCD7FA3489FAA491416338885
:100AB000231BA7C0C676AD809B2F04469CDD036038
:100AC00020D5F344DAFA62E1F0C4261180B0312176
:100AD000192681101E9008B0B40F04F3B9077603ED
:100AE0009979B062F86DA2AF93CF31669F3DD2661F
:100AF00020D70402E095063C66D3DB7898FC1631DB
:100B0000B35E1D972614C21FB396CB4BB320024D84
:100B1000F1B0FDA758AA8FBAFF8C8809FBEF2E20F1
:100B2000F84F34FE9022117FA31201DF20EBBF8229
:100B3000BF774402A8ED58FCFFA8660A40FB0823D3
:100B40008DDC56F80647AC2010DB5DC88076132A92
:100B5000B33B360EC01072B3E601314DD4D36B9364
:100B6000412F034B161816B4152EFD08C5406659C3
:100B70000D3DB1B50A7EF8A505800804023B91E75A
:100B80001402796DE30CF4809B09F9935E5930826D
:100B9000FF7F5865B330D9B3051067B4C25F8621B3
:100BA000FF3F26C104984CD3024C35EB561916EF83
:100BB000B178100367F9E2DD9ED03D90AF07B32610
:100BC000E8011907F2F0401E10D31E0F629D52B0CB
:100BD000FE048ADD477EEC81C47F69101E02D4F6D4
:100BE000F5FD0675F1E7D3305983FE18B3B30D81D7
:100BF000B1110EFDB309200210C2ABB484056CB371
:100C0000A268B36C6638FB5B1E94440DA121C478C6
:100C100068B9301469C1302C208EF4154120A8B376
:100C2000B1E88A9645C921AB110A17B226F16B9536
:100C3000B1FA8ED181028698C35F7F773630400645
:100C40009FAC01B8D3B9D4B328D8FA0CB60D256738
:100C500010887B982934BC015951B393B9E010082E
:100C6000B3D8D0F8B7F03224482C09474DCC3830EF
:100C70001AEAFFCD2B0191FD0504401815B6602E30
:100C800078760FE24125E798F130FE98B6603BB4E4
:100C9000D79860E57B8A8E19E30482C424EFAA9C6E
:100CA000DB8530FF197307662C19A85BD59868DBC4
:100CB000E0893FFE7F84013008D7983042803605B6
:100CC00052B3298C485E4FDDE3303E9FF4083480F8
:100CD00002117EFACA4101A051B320E4174892984C
:100CE000430CC5F22EFE3330D9198030226E5628BF
:100CF000A414D4F840B02D347415C73830DD6661C3
:100D000072F4C0D38E3D2293FDEBAEFC9896B3D81F
:100D1000BDFE639C3065A1AB04DE4464850C886E27
:100D2000EC4564DB375315F2E5CAC8E3303F0BD41A
:100D3000B52401CD3098107F8C4004450398C81825
:100D40001E2361022CEEECF189FF5FCC98AE5A3085
:100D500012BBF8E90105B9301E77B8A503E0812B75
:100D600027C8F3C0036FC1301855C530B40C297FB4
:100D7000103DF3705AE9FFC4D3E2D823F8BBB34D5A
:100D800084B1012F0098B830F7B38010116480B39C
:100D9000A885D8A9F8BF1D30E6986D9FD1CE301632
:100DA0005224FE7530418031E7BFF9D77A8BA4EE2B
:100DB000317D8FAF32B1054ADEE180565AA5677B9F
:100DC000C668FD639E98B50435197ED1E401319063
:100DD00007705E235C96609DF7608704417658C873
:100DE000BF17308B98D36D35C24011A88F8006BED7
:100DF00091F195112DA1C946A4225FD1EC9AFC0472
:100E000022F39865DB0133EC120476097A06906EC2
:100E1000FD2661E61362158A7DEB70FA8E7998BF24
:100E20005B1E733005801AF0D7923068FAD6F860EE
:100E30007820AEFCECC8B1197F63988401B12A5ABE
:100E4000EB02DD60C6F3F7AD7FF6C2B1FD2FCB300C
:100E50004D82E0B3046669E51924C1B3E506DBB150
:100E60008067B3802290755892E7023065F9E553A8
:100E7000E50480B426F6E3010D151191C93001A5F2
:100E800031FDF8D847C6305C92DA9F1088B926DF6A
:100E90008D305695FC37E6987740FEAB41DF700108
:100EA000E798798B11B0D6AE129180FCC739300427
:100EB00066EEE210DF5A00128037E03EE4FB9E7BD4
:100EC000FD16ED171279988812E9EC40977309DD49
:100ED000EF79437A9880BE7F8BFABB5771F81BF38A
:100EE000983F3FC881048007027FA89840E0FF7CBC
:100EF0009806C40379105DE20118E2B1B3F9F51D5B
:100F00009C198E8083F5BBECDCAAB8CEA9EE6C50A0
:100F100013F95DB38DD98809FDFE02116819446982
:100F2000FC8C70F3B3C0194A2C866CCCFF1052476E
:100F3000FBCC212214B3F7A764915797DDD084CE60
:100F4000308141240BB93088BB0297AC2050D63693
:100F50002C194485CDB3906903046CE462775CB1CD
:100F6000203FDA321EE4E856C0655AA01981753078
:100F700080072690D7205AEC5E98775FAEEB1EFB79
:100F800012ED171A17882C3C28FCAF2EF7CFA2269B
:100F900004A86014A6FBDB3C18DE6020C4F93018FE
:100FA000753EF88480103012CEF099EB5DAF0408E6
:100FB000983DA321409001D4F89910AF1340958C2F
:100FC0005D269727AD151C08D4F8EC62403C4FCA4B
:100FD00098AF05E530E0F4F8778B98F1EF60506258
:100FE0009760BF04C598929F97C8E20040E0266BC7
:100FF000AF57C297F298D182F05BDAB1F97E7630C2
:101000002C824571B3FE98F71680081806B4D7886D
:10101000052B30D0EFC852B308ECFFCD376DDEA200
:10102000020D02B34B3BD398091946BA12FD580A78
:1010300081057571D56D7FB56B0120E693F7136758
:10104000FF47200C408CD9B2DD46B9479B98F92E5A
:10105000B3F318FE67756EBFD72FD9ACFFB0BB8254
:10106000D598F0F3D69940AC0CB7C89390E5E978E1
:10107000B1FA8E0030C4ABDF80F78846D124BBF4D0
:1010800088A2092B8BFC9B70CAFF33FD5291300163
:10109000B48F9093093012B5025AB3019FCE9CC809
:1010A00082180E0B0102086ECFC8C1285857535A38
:1010B000A25AFCB3C80A19963120D290AA02810B19
:1010C0000768F2DA90032BF8E8CB982AC8FD6D1870
:1010D000100BFC3046F3B26367F130BF8BA593C2AF
:1010E000F3B5AD62D0AA5E88BC98B8DDBC4E57FBA4
:1010F0005BC5C990A536EBC1FB36B367624704BD3B
:10110000981459C84AB301F3EA793B900B38BBFEF7
:10111000FC1018E07D0CCD31AFF6FF60FB8BACA866
:101120000499F9377006F3FBB3CAADC6246691D3B0
:10113000FBA0D30A6060F378FE304876FF98FF2C5E
:1011400051939C5967EDB48DB1D3D0FB18242D6613
:10115000D83ECC0352A039F79306BB406C7664C9E5
:1011600085DBD395A2F9C19D6658F90C9584B451DD
:1011700064D4EDB3F38DBB8D24BA0BD817D7B6D892
:10118000FD7106AA6608586657F5CCF632353777F2
:101190009944E4B2EA46FA28D0D8F8FB25F9E5816B
:1011A000A6B3B380B60EC796B3104F5862F76C0B58
:1011B000B1E5B304844674BA95677E29D0C57E3202
:1011C000F0D98C42A37DA0566D4C89FBEDF670F8EA
:1011D0008CC4D03109CA28B301F94E2DA1A5067DD2
:1011E000BF82B0B105AF3077AA804011B64C48FD40
:1011F0006E1B19ACABA04D50E98122C4BF80D7480B
:1012000008F635840641915252F442B764982CB3E3
:101210002B5BFF4098A98597936DB10A0CE425528A
:10122000B4802141D034D38A93CD6F4727FC74F822
:1012300063ABC15055F828842B95E017CD2E01845F
:101240006555C6CB43D398FC61CF9909F68F63FDF2
:10125000B1614A4688C197B41720FE6799EC7B8B31
:10126000672C01382EDDE3048D6962842B19020995
:10127000BF2088B0FCC8B346F6624E4F98F808C746
:10128000B836CFC544208BF94B8CF6FE30C6EFE460
:10129000016E476E88B16CDEB617CD4880C6BD7151
:1012A000459DBD8DE8FB9FB67B1C77A0A8FD63FC28
:1012B000CBB208B8CAC6FDE0D0B0F97CD315F83976
:1012C000DB161B8056F6CE78F82BB6497F51BB1142
:1012D000E0DB5A01100201D9100271A7CDA658FA1D
:1012E000843C4C63DF7463FCCA659B791B5EACA6CF
:1012F0000445A8023619FB25ABD020C6CBE108CBAC
:101300005BCD0899989CCBB7803366BC4BC770FA0D
:10131000DEC852ADCF6CDE30FA3AF5F404932461A6
:10132000A5B0C89BACFE7F96A604396BC6803397E8
:10133000DB1099743F8BB340BF1E70DAFE20EE5F66
:1013400080C2BD5BB5027E2E41DC659B91FA40CC2C
:101350007BFE3F50224E310752100801C402204745
:10136000DB7C800703CB09B7BA2A50FB603BC896E9
:1013700045C06FAD5B40E911086A2FB904CB05E2A7
:10138000A01407C782519F8B022D489022DD821244
:10139000015ECD849BA050FD3AAD186FC408E3A058
:1013A0008801B3C666DF680787A0181E023AECB052
:1013B00041980FB31A73906245EAA104423B8548F5
:1013C000F80ABAB7DE8C6843C5DBAE2C12FF5FFBB0
:1013D000360482122FE8FCD5422008040148108D03
:1013E0007E9B5BF37F0F48FEB110CCDADC22FAF86B
:1013F00011C77F1D204BD8AC18E9B183B0048F6AA8
:101400004CCD797DE4A0B0FEBF760C048276BEF0B0
:10141000932CADD849FAD5998DE6FFB33AB320396C
:10142000D2046FD61761E859078B1EB6FFBEC145BF
:10143000E9FF952560F6768DF0D8FC847D396A97B2
:10144000616EACAF20E318CDB6CC7844D5FA349AAF
:101450006C3190FA2FD565018A698D7FC7B4FE057E
:1014600084FB9563ED15B8FD843724A380A708B1EC
:10147000DE60D8FB084926DE3C0363F5DF67ED98A4
:10148000FF6CB704F8638C430C47111CFFA00106E6
:10149000D8FBFA22AEB380FDB0FE8232B38196FC57
:1014A000FE049B660530EC1160F8115CB3E0413C32
:1014B0000DF8FF82306608311620107AE5788E3DEF
:1014C000FCEF340DC0828C3BDAC0013008B147100C
:1014D000031550BF28B0FA2A6C1467CE98C3471F73
:1014E0007DB3540140840DA476A7420637FB3298A1
:1014F000083F324CF45105800CF8A5AE34068DF847
:10150000980DFA088F33B30C01D60A4AF88E58B3F7
:1015100005DA66DAC20FCECCD4D9940BEA1B33FDC0
:101520004A1957B34418EB4019EDD045153DB6A004
:10153000B10AAF27986660FC0463CBB3185DD8EAA4
:1015400004DDC93C19DCD881FB4F1BB7061FEF64D3
:1015500020FA1063CDB34054A6F6FB2C2237CC30D2
:1015600008050BD8083BFEC8F711014002FE7F209A
:101570003B1CD5FB28841F32F7CC0510403241EBD1
:1015800002B2C73DB850D8F80CFFBD98410504120F
:1015900033F88B20B209637F7FD840FEFFF0321C06
:1015A000052E1171218A0288D8D7FA7E3011A03118
:1015B00019F4660477288E0A663318CECC013CBB3A
:1015C000640C6117AD980473C5026328193016C006
:1015D000106DE3E46AFCA32AFC19ECB151D8B358AE
:1015E0004178AD40F144DFCC3120A276339A5310DC
:1015F000F5C3FB8405B3DBB314B30382465E373D0A
:10160000FA58FB8451A97FEA0E218C2373BBB16881
:10161000F91F57B4C41DCAEDE5C3A08DCAB28970C5
:10162000FDAAFF1843FD32140ACC6602081B0519F7
:10163000251A8FFC841E98DE400418F6A2228280B0
:101640003064BBE0ACB120ED175C93EB9C041BBE97
:101650005DF1FEC238D87642FDF70C80915545AF5A
:101660002C301A62382D5414D709485B480A5601A9
:10167000376BEBF06566188C31675501E941B38231
:1016800046D039BBB6E81C53198028144469DAB92E
:101690002A58AF01ED18ABDF5F1728564462BB3CF8
:1016A0009E132280B117B7D38AF804637FA478B35E
:1016B0000D40A12BF5126C966FAAFE8CF86F4E842C
:1016C000F5A74476184154D56C25326EEA60BB927A
:1016D000FA0C63660F68F59691493BDB1705715E5E
:1016E000B30D8F2CB37820E7CA165044BB45F83AA7
:1016F0002722F6283399C81090D8E4FA40B3B414DE
:10170000D4AF87D8D20AEF98B8EFA99802B3101EC9
:10171000413D010D66B52A8E2C89FD76A992BB1E2E
:10172000C25140BF80387B288A2C6FBB640AFC1FE3
:101730008FAF0E1410BB55935323F4286325D69D09
:10174000ACEAFB8FF3CE0E40E9440141F5A38F22B2
:10175000086332944D91F9FF8FCAB718F3111FA295
:10176000F86C90F3FD22DD4910FB8E63FE4BECC854
:10177000FE107BFF7F4C4014058177BB98208AAA1E
:10178000173ED8F6DF38107B4B5A1168F89B24823D
:10179000A21CFDEE908E9319901C50691FB40F2867
:1017A0002022638D1998FB8FE3471A11BE0471C480
:1017B000CC2C026AD57781F5A5C630106A6240FE4E
:1017C000C06402B182CE58ED2841FFCC4A414401A9
:1017D0007FFBCC22A20219E530807613FBC23BB01E
:1017E0006087CEE530FC8066DFCC4C7E95AB88E62A
:1017F000983D7EFB405114FFF027A8280A18DE6CA4
:10180000C8B820E7304241507FEB7F88ECEB76365A
:10181000CCFE105F134115BF0478B48002EC71D682
:10182000A059C863CE66401001EFD6F430D8B5E6B3
:10183000BBAB70FF041EE43040CAB344B1F4BA201D
:1018400045C67C35DBFEE81DDC9607F0FD524055B1
:10185000359003FC7F886AB1FCBCECC890F96D1927
:1018600080B505933F5FB1D2C666E0FAC7F7961818
:1018700071BB2EB30C31F1B6B370FEC206B3400596
:101880001398B31CA06131CFF39F38FC20CF805B4D
:10189000B5D202403C01CE3CF3256EF0409F323C75
:1018A0002080D8A224D3D380C06107B64B48109DB6
:1018B0001787342063BE98D885FFFB664850EE1129
:1018C000150176B380088A38D3D892FE4066DF11BE
:1018D00004185BBC7B80221C58D68241FECC184188
:1018E0004503D2B3A0B4C718D309F80C26E5301CC1
:1018F0008FB6D673FD36936698D2E16654DF06083C
:10190000E6FF07C9B381FAB363B48BA9405890FED0
:101910007EB36BCFB528A105E8D8FC02AE6CAB1046
:101920002D3AAC6C77596608B040C15C5896FF669A
:101930000862FF849666F90887B4E22B18C088F322
:10194000E503F5B30461FAB5016CB3FA098519082A
:101950008242B390C0EFF3980FF68EA85EC0EBFB07
:10196000CC03F5B31064E9038FB6B388FD3FA4D769
:10197000B0100A02D581018F36D5F0FA0496ECE357
:10198000403EFD7F209C66D8FD0C7265B7081A6B3F
:10199000FF219543FABFD848639B3B0471B35AC1FA
:1019A0002801D838F9FFBDEB18068030CFF80C03BA
:1019B0006018B280CCB4EBECFAA0FC63EDAE83000F
:1019C0009789DC787810ECBF33E1FDD4B871B38E21
:1019D000CA4002D2E054C101B108930DA358FBB034
:1019E0001083A2FD35F8948C77D6E55C3DD5B1EB3C
:1019F0000504BAD60B1E954522C66607072B7D0245
:101A0000FB32FD04048666D8FBC7BCE78D8C7F5390
:101A10000163FC30B0FC461D698A80508257E53274
:101A2000DCB3851E4B2C84778CBB7AFBAD40014424
:101A3000FCA014FC634AD70558B3F9E993AEECFD5A
:101A4000047B995C80018EB0683EF094C3F3B303CD
:101A5000F5B36003808172F83406C041C71BD6F825
:101A6000FD086D072AD30229F81C10EC0584146DBB
:101A7000D6E8B0FC873B49542AB30955F6143A79A5
:101A80000637DBFB90081066BA2F564DB3795E3AE5
:101A90008D80B3B04D823F0F9AA9502A0A4AF8D9D7
:101AA00058B305DAD662C20BFB60A85155229EB32B
:101AB000F5812A65C716B37A103B6690E14AF74E66
:101AC000DCD87025EF2C304123E3CAD5BB14C627E0
:101AD00038D9B06B8066DB36370B107E08FDC7EF58
:101AE0006878B424C74F39555AB119D5D5F88FBB8A
:101AF00090FA4338DEB3FB264A09C77E55C20FFB76
:101B0000CCF6C550089E41F3206A09C735CFB0D83E
:101B1000FF0CF3B38621DCD228F8F6C331EF293964
:101B20007EF758FF04C7FC4B075020224FF8476050
:101B30006A2D638DD308FA84355EEE568212F7BAA9
:101B4000116B40B109DC31E1F51918BE58E7FF2CE3
:101B500030FB22F398F3CC1B63F844B008871D4791
:101B600026360ACFF92D12DBDDB110C519F9841D17
:101B7000B4EEC65128FF8715606AD86E0AE7AC211B
:101B8000FD206F6759507BB387056A6F0FFFCC86C6
:101B9000EEA153AA7BF8E7706F2E1C58D64A41EF8E
:101BA000E51E03582077BE0697226A6905C73E08DE
:101BB000C20766A06456020CEF76E532EBC037D55B
:101BC000FE50DF184DEB98151F95B8818D9B66D29E
:101BD0001E42F9A36FF11CAA92E3301DDF9D4886D7
:101BE00098D32A08201D018C1F2B1CE3CA081C193E
:101BF000C065027A607BB3D5301A161C6CD668FFBC
:101C000073D44F081DCA0604B278F4B7615A160C93
:101C1000776C4973A917284E528EAF94C0D09BECB5
:101C20001A150A77967D043CB3DE4A86673DB311E8
:101C30009A148ED666FEC7F51C680260F4B3390BA1
:101C40003B1D76B330F90C117AE580C23E583080E6
:101C5000EFAC980589D8700CFBB348FA61073BCA12
:101C600022B28BBDA003EC50193174D5C20EF764BB
:101C700006464CD35B0363B12AD61A18FCC714E09E
:101C80000266DF5A403EC283040AC77F7F9DD8FEAA
:101C900008F7BBE5A62320FF7FCF0B1E64638DB33F
:101CA000EAFC8FEBB22E469704FA0D6619118E36B8
:101CB000D3B2FB3F1FAA3622AA81BB41F6CC103D0E
:101CC0008B48F91BEBFED62118861110B6FF6BF876
:101CD00013EEE31C8C5875D5FEB110EFFB7F146832
:101CE000CA8BDD5E74E7C18EDE61FBC7FDE52203B2
:101CF000340C77BBE537202A1EB3020829118C97D4
:101D000038B3D82C7D7A408EEE1CFBC7FB8D8ADF62
:101D10004152CE39D74023C77F79B86105FD60A411
:101D20004AD4A0F377EC2422D0766C9A20B77912AB
:101D300022B27DFB691B10F31D76D6E0FA0C14F875
:101D4000E5B0FFFECAC64D8DB668C3BF3FE51D7145
:101D5000E03CA2CFF84651560563A6B3105E137857
:101D60000545EFB34904625663BFCC61077BB1F20E
:101D70008047DEB3DA4573A5C76AB6C20CD22E70AF
:101D80006610E976438522A439CD03AAFA8FF23092
:101D90007A07C5A0105E51F65A85A29138B3B150AA
:101DA000DFD67F077EC8803A0190030160EC5115B1
:101DB0000471B358638D668005A7B6F0D00286F82B
:101DC00038B3B161D51904A79D4B7AAD0CFB9E1CAD
:101DD000ED84E85D608F3BB3A8128F9EB34C50A991
:101DE000ABC71CB348FE20D5CF80347E02403CB345
:101DF000018FF3EFB1409108732168A0EC2A3824D9
:101E00006DD39063FDFE3DD1403728FE43E0B07BAB
:101E10006831DB58792CF36670C0DE5E20B3EC606D
:101E20006F2F7139F288FCC7E75460DFD584D38601
:101E300019B863B7ADB0F883FDCCA83203CFF86C06
:101E400050B909638DD380F984FC30B14CFFD8A21E
:101E500019E7D932C6D138D3C098FF608EFF6067CA
:101E600018B31FAEB3DCFB08C11DB420C090FD60E9
:101E700090B3B098FDB31064671688FA6097FB7F43
:101E80000A0F56BE8046B69838FD05AF98981FA633
:101E9000B307EAB302C121B3B8607EF5FE8F98FFA5
:101EA0001FA6B307E9B3F5956F711998FBB3E8F96D
:101EB00061065DE7D7422CFC017FB664FC069FEC0F
:101EC0007F20E5B3FD823F20300158FC411B5C04BC
:101ED000517E8AB310B0E6CD6CB360F9E3E13DFF0B
:101EE000086ABAFB04012008801237D3C693F8FEB3
:101EF000C67EFADE4D8DC566819674674D2A8FF9D0
:101F000098B820B1C488DAAA40475CFC1063D73483
:101F10002EB404B3F3321C6CD44CFA75B40868BD0B
:101F2000958083165F3CFF60A7A66207EAB304DED4
:101F3000AC637E8682DEFEC0B63219FC03231E31FE
:101F400019FBEDAD01212835EF0E46C71DD590FCDC
:101F5000088E1F93FB7D02FE78C7D619FC0D3AFC54
:101F6000607E98B31FABB3100485B388848B660C76
:101F700055F8068DC652F8C23D37FCEB1D1CD7AC98
:101F800005FE0C609019ECF2F904121BB3FAF90487
:101F90009FD83289253619E3F809BE4B607E98B385
:101FA0001FA6B307EBB38010609466D8CDFA24B6B1
:101FB000B3BAFD04B2B389C12AD679AB0475EDADCD
:101FC00040E62AC099EBFE049D6CAFD0FB1073C8AD
:101FD000236AF8B0F841EEFEC003D63BA048FC04EB
:101FE000151903B219F8030485B3988257B64BDC70
:101FF000FB04C7AC9808121BB3A3FC025B857D19D8
:10200000824DACC6EB0FDBB0607FF698B2FDC188A5
:1020100019C1FFDB98C9FA05831903F7CD98A2848B
:10202000C716D3883BCB7D0255F801844B8DA81D84
:10203000F54B04AA6602C22766E0FA0463760C6ACE
:10204000E2B0508DB368B0FA8C6658114419D8F8D4
:10205000FB25A6B320CF80BF5202A5403C019CF3D4
:102060006718D1D9D38277AC9828121B6681FE04F9
:10207000BCB0C848FBCC04CE6C30FAF9095FB03272
:102080003D0CB33FF398037019F940DA05D8D8FA3C
:102090003218B33FFECC10C121B3886096666074DD
:1020A00098B31FA6B307EF58FE1FBF7FD8DCFB1EF7
:1020B000FFCC607EFDCC8FD2D398C13019C0DB5AE3
:1020C000B380ACF890090F58980175BBE31014F574
:1020D000E288822DEFAD02FD7FFD821966AA19FE0E
:1020E000C1275BAFCCFB025B5615CC049F58641F25
:1020F000A6B307E9B381FAB3607E98B31FABB30C04
:1021000055F8068DACDA7024D51508B65894DBDA8C
:1021100050FBB00C487619E3F804090DB3C9FA82F4
:102120005FD87F2598192598661CABB3080486B341
:10213000B2FDC09830194BEBFE07E31903F5B3BAB3
:10214000B0FD38DB1989FE025A965E880C7FCC60A0
:10215000FFADAFF2F9824F36CAD8FB04B6F649811B
:10216000FE072F91E5FB81FBC63007EF18301FBC3F
:1021700030D8D0FB1C7C30B09035FCE5C1FCB3DB23
:10218000ECA773F652803BDB170255F801844B8DA8
:10219000A81DDDE304AA6602C22666E0FAC70D4761
:1021A00056B35011B6B328FE118B6611089D19F86D
:1021B000FB108243B3E8FB9A20CF80FE5202409688
:1021C0003C0171F39CD16366D309DE98B02C47289B
:1021D00066B00F4B9B2A048FB0CC4CE730A3FC3089
:1021E000608E6660F5C63007E9B381FAB3B060E58A
:1021F000B3F8619A6610C5732EFEB002486C19B828
:10220000FD3258B302A9B381EFE6981F98B31FA619
:10221000B307E9B381FAB36097C63004C11981FAF4
:10222000B360FF16A90737ECCC0A1218B3B0FD1043
:10223000032C06115BB3F8FA3B0C1F315ABB40B6B6
:10224000F8C8FB69E78753B5D8D8FB212D2002AE2B
:10225000FA582823ACFFCC3430663F7C4BC0843026
:10226000193F722EC0FDCB2E03F4B3C0FD30B37105
:10227000D5FC0CA1F98EE65170C24ED8B108479E2C
:10228000AA50FB0CC12119E3D8F8042436B3C9FACB
:1022900004B5B679A3FC093EE5B08833BAB1C0FDF8
:1022A000A3F8049ED8FED83FD9C681FAB3D889FED8
:1022B0003118B33FAC19BA132E60C0E5DBE3049CC0
:1022C000ECC8F2F918B8CAC1FF7B4981FE03F72CAC
:1022D000C81FFE7FC18F8C301FF3C8FAB0F930BC25
:1022E000E5C0FDBB6003F6EC600FD3B36D31D7CF13
:1022F000586B80EF2D7D0256F801112C8DA876F6D3
:10230000FA04AB6602089B66E0FA1C354758B350E6
:1023100046B3D828FE46662C11227619F8FB100920
:102320000EB3E8FB206BCF80FA520240593C01C645
:10233000F371D18D98D3277A982CC11C66C136ECE5
:1023400060127ECCC13B16E13008E6660685D86097
:102350001FABB3124E3047B9C701625C30B0FC51BD
:10236000581940212C66D810AD2C026C6660474588
:10237000A9BFECDDC80E9EB0FE3F4CB30FD3B30334
:10238000F5B3DC607D515EB9FF81FAB3607EACB31A
:1023900002121DB3B8FD128239B449908258660BFF
:1023A00003AE61B12B0661FAB360C5B9CA206151B1
:1023B000BA8F5DFA865447D818FF11B7AD6EFFB0DB
:1023C000CCD36C960FDEB0B17630193F4CB30FD33F
:1023D000B303F4B3C0FD30B37FD5FC0CE6FA3D9BEC
:1023E0005770376CE37736BA0436DAEC50FB0C12D0
:1023F0001D19E3F8048243B3C9FA6097FB3208045D
:1024000086B3A3FCC127D6E588058758B13FFE7F78
:1024100090C099301949EDFED883FD98C61FBE982B
:10242000B0B2266C79C098DB9603976CE31273C840
:10243000F2B0F962E3CA07FEECB181FE0E5F30E54F
:10244000263E7FC1256689B0FE25B930FAB0F93045
:10245000BCE5C0FDBB6003F6EC600FD3B36D31D7B4
:10246000CF586B80EF2D7D0256F801112C8DA87688
:10247000F61304AB6602089B66E0FA1C354758B3B6
:102480005046B3D828FE46662C11226C19F8FB1270
:10249000D3B320CF805F52D202403C01CE33F38CC5
:1024A000D16CD3C13BD6982408E56656DF097592F6
:1024B0006091F6CC09D4116090666074713081FA35
:1024C000B3B040C72CC819166620182CB3B82D58C5
:1024D0006601DA66FEC1D62CA97D04A860D3E69811
:1024E00007E9B381FAB3B002486CB3B8FD0FBFB0CF
:1024F0007FFF8CCA3F5AFF8818661FBF7F607E9897
:10250000B31FABB3120485B3A8828F2B3080166F34
:10251000061FB6B360F81E2CC004162E13C3C5B335
:102520008096F2B0904ADEE3CCFBC123DDE5806407
:10253000F987E6BC07EF58171FA6B307EAB330FACE
:10254000400110B40858F1181116C6B93CFB1E5BC7
:102550009D6910C9ACFC3A69B3340AFB1A6EF1D814
:10256000C0F877CB8B1092FB0866D6EC133B51B3C7
:102570000CFC6977B7F67F30FB1DFE3208CC932543
:102580000F3CE5FA5B6E052C19F8338D5C02AC76D6
:1025900008140A5FB698C0FB147CE306F9572CC0F8
:1025A0004E364D50127AE508C4B28C8DACBC98D131
:1025B000A3B0D8FC046BE7EDAD66047C98D109515B
:1025C000B0FFC9B3406AB3D990087E98B011CB4D23
:1025D00015FFC52C667B9810FDB008C9B20862785B
:1025E00043B072CD66906AF8B4A036AB5819A867AC
:1025F000DDB18204946CB7105857F9761A66F9D693
:10260000879DB1667A9858C34E5BCA0519B37C3072
:10261000D858FE66B3B1093E5830186666B1065EFA
:102620005830FD7156E87BF398FB61DDAF3511360C
:10263000F3581908696BC6105D3FAFED7FD6198C52
:1026400008192EB2180CF631FB323A8D33FD9888FA
:10265000619A6602DFECCCB6EF9BFCC3352603AF74
:10266000D9779D17B029CFF67F1E57B09802042C5A
:10267000083AE5CA188A2CF3B3343219BD50186EE3
:1026800019D880FD75EB98145FDA83686A0C48C32B
:10269000BBEDFA2008749FC3AC5B941E2E5F083715
:1026A00019E5CA10867A15B61AD3FC5069B741BB32
:1026B000F192FB040E36E3DFF67220BD17B0F8EF9F
:1026C00036C8109F7FB578FCC5FBB00EE1FF1066E1
:1026D000633F81FD619F2D3002BECCCBF598908683
:1026E0006B19427F3CE4198C1F39DD96108A7F4AB2
:1026F000C8FE61FD6DDF18FBA1D02C6639BD6004FA
:10270000A7DBBF73CADAFA01873760DA3001FD7FD1
:10271000A20928C3BF5B983C789806869C199B1930
:10272000E48A165EF69639F81D66C830CCF5982016
:10273000866DB34A0889FB9890FB60444A9010CBA1
:10274000F798F0FA0861CE2D47844DF35BBCD0FFBB
:102750000EFF7F026BFB7F010E774906B504591906
:10276000087E98EC98FA04373319FD98A861A6AD55
:10277000150156B30A5FB698B0FA19E67B10D7E098
:102780007F32FD98F4B0FECCB3C556E8FE1DE5C817
:1027900099CD3010F88538F16FDB1F1A2BF6774092
:1027A000FE98D8EBFA497B290112FA7FBB605FDA09
:1027B0007F022CEAF923F6FC1002CB4066066DB6C8
:1027C0004967AC98FF73CD1556B350C6B3710197E6
:1027D000ED980BFA84626681C67E25DDB378B0FC85
:1027E000E0B3CF73FFBCFF20CF804D5102402C3CA3
:1027F00001E3F338D1C6CBD3ECCC12F7E3246090DD
:1028000066C4EBF8609066D8C9FA65F0CC1A80E02F
:102810006AF301A3D378F9B008E2A593A4E6F3F52F
:10282000DFD893F812BF32607898B31FA6B33F7B0E
:1028300007046F583A48797BAD05B815DFBBFDE852
:10284000FA0E6444CEDEC7A8FCC1FFF6CC0827B060
:10285000257650FB072FAC98101216B3CC066FEC00
:10286000CC0453361FB819AC19025566FD606A795D
:10287000989BEBA988023B6CE38BB0097E30663FE6
:1028800059B38010B361FED8487BFB320439AC10D9
:102890006865605AF13081FAB3B408DD4801B7F7D2
:1028A000242010FD3386BB49BE50AD387CEE11A309
:1028B000B44093DD0CEFFA142F670EB2506BB9865B
:1028C000F3D3D78FE018B3236E9388C35FB4CC6C77
:1028D000661008AF83CC98B0FBCB16E148AAF88409
:1028E00016FC1CFF75D8D4FE44C3607EF6FE20CDD6
:1028F000C3940405660ABBF638FF60858B47105504
:1029000019FC81CFF6321FFD3ABFEC32FD3AD315E8
:10291000F886C8E72648FE0261DA26120702401848
:102920007AB304168058C594194082D80120F91151
:1029300031D81002F20A28B69BB070F80267FF3255
:1029400015A002B480FE0A50012A4005A881F3DEDA
:1029500054F381C0B8EC0017E0FFA2AFD343E0D03E
:1029600068D33FE05C800BF003F22EC00FA8D37F4A
:10297000E6D8FC80081001074104F08800112068A7
:1029800044F3362240F7F3036480EC0C9001D3B497
:1029900088D3E010CD07D3E03240FE06C8041920EA
:1029A00013457ED3140118F8FF3B0080F0927100AC
:1029B00010E31093700027D0087151F000EA2ED078
:1029C000083131F400E02AD0083211F400E026D0BA
:1029D00014E91093740017D0087181F000EA1ED03A
:1029E000083161F40EEF1AD0083241F40CD00031F6
:1029F00001EA14D0003411F41ED001C000E014E943
:102A000010937400089504EA009374000091740018
:102A100007FFFCCF00917100087F089500937300B9
:102A200004E8009374000091740007FFFCCF00914C
:102A30007100087F089504E8009374000091740009
:102A400007FFFCCF009173000895F894FF2411E074
:102A5000E12E1FEFD12E1FE111BDF1BCF4BE1FEF1F
:102A60001DBF10E11EBFEBBE1FEF1093650010E00D
:102A70001093640018E0109362001093610013EF4C
:102A800013B910E012B91FEF12BB10E011BB1FED1C
:102A900015BB10E014BB19EF18BB17E817BB1FEFED
:102AA0001BBB10E01ABBF092980015E01093990040
:102AB000F0929B001EE010939D0018E010939A0086
:102AC00011E01EB910E71DB9009BFECF05E031D61D
:102AD000ECE8F0E0E3D51091610011601093610023
:102AE00013E91A95F1F7109161001E7F10936100B0
:102AF000019BFECFE8EBF1E0C0E0D1E010E80590EB
:102B000009920FB8779BFECFD150DF70DF5F52E0A4
:102B10004FEF110F11F41591111F441FD0F75A9563
:102B200049F402E0459580F00395439551F053E058
:102B30004FE3EFCF5A95B1F4469508F35395E9CF9B
:102B4000040F54E04FEFE5CF4395D1F453954795EB
:102B500058F1551F110F11F41591111FC0F7050FF2
:102B600056E0D7CF5A9511F401E00BC05A9529F4DD
:102B7000439531F455E04FE1CCCF5A9509F7542FE6
:102B800045915A95A42FB52FAC0FBD1FB150BF7002
:102B9000BF5F0D9009920FB8779BFECFD150DF70C9
:102BA000DF5F0A9599F7B3CF029BFECF10E51DB901
:102BB000169AC79AECEAF0E071D5F8DE1EE460D50B
:102BC000A0E0B0E071D5E4EBF0E07AD5ECEFFFEDFA
:102BD000A791B6910A2F0F71D9F01B2FAA0F111FC1
:102BE000AA0F111FAA0F111F1F7091F01D3080F442
:102BF0002B2F26952F73293058F00F9308E27BD5A1
:102C0000022F64D5012F62D50F9160D509E273D5EB
:102C100043D5A0E0B2E048D5ECECF0E051D5B3D418
:102C20000E2F60D500E267D50F2F5CD535D5A0E01B
:102C3000B3E03AD5E4EEF0E043D51FE50FEF20D541
:102C400010E2ADD217E50FEF1BD58FEFE8E8F1E00A
:102C5000ABD28A9511F401E04AC40130B9F7EEE82D
:102C6000F1E0A2D280E002FF80E414E098D2EAE929
:102C7000F1E09AD212E093D209E690D2082F8ED2D8
:102C8000ECE9F1E014E093D2002389F7E6EAF1E001
:102C90008BD20023D9F7E4E9F1E086D20023D9F7FB
:102CA000A0E0B0E0C0E0D0E0C2D2EEEBF4E0008102
:102CB0000023B9F4E2EC008110E0013051F012E0A1
:102CC0000B3039F00C3029F011E0063011F00E30E5
:102CD00041F410930005E6ECA191B191C191D0812E
:102CE0002FC0E0E0F3E0358500E010E028E0379504
:102CF0000F1D2A95E1F70A9509F4139506850784B7
:102D0000002909F0139503890488002909F4139513
:102D100000A101A0002902A0002903A0002909F4B4
:102D200013950589007F003F09F41395143011F0C5
:102D300003E0DDC3D0920005C0E0D0E0A0E0B0E049
:102D4000A0930D05B0930E05C0930F05D093100509
:102D50006ED2C0E0D0E0A689B7890B2F0A2B21F4F0
:102D6000A4A1B5A1C6A1D7A1A0930705B09308055A
:102D7000C0930905D0930A05C0E0D0E0A389B489C7
:102D80000B2F0A2B21F4A0A1B1A1C2A1D3A1A09322
:102D90001505B0931605C0931705D0931805A189A2
:102DA000B289C0E0D0E00B2F0A2B19F000E115D357
:102DB000ED01DF93CF93008900930105A0910705F2
:102DC000B0910805C0910905D0910A050A95AA0F8E
:102DD000BB1FCC1FDD1F0A95D1F78F919F9116D392
:102DE0008685978580930B0590930C050FD3A09350
:102DF0001105B0931205C0931305D0931405E5E1B6
:102E0000F5E0EED2E0E0F3E0058500930205E5D2BF
:102E1000A0931905B0931A05C0931B05D0931C0508
:102E2000009100050F3F19F5A0911905B0911A0501
:102E3000C0911B05D0911C05CF93DF93AF93BF9337
:102E4000AA0FBB1FCC1FDD1FE6D201E0BF91AF91DF
:102E5000DF91CF9161F0AA0FBB1FCC1FDD1FAA0F1E
:102E6000BB1FCC1FDD1FD7D202E009F00027009363
:102E70000005A0E0B0E0C0E0D0E0002331F00A950A
:102E800021F0A4A5B5A5C6A5D7A5A0930305B09329
:102E90000405C0930505D0930605A0932505B093BE
:102EA0002605C0932705D0932805AF93BF93CF93F2
:102EB000DF93A0910B05B0910C05C0E0D0E0EDE0F0
:102EC000F5E09BD2A0931D05B0931E05C0931F058E
:102ED000D0932005E7E0F5E090D2A0932105B093D0
:102EE0002205C0932305D0932405DF91CF91BF9194
:102EF000AF9111E00A2E0B2A0C2A0D2A39F01F93EC
:102F0000E4D1D1D11F9110F41395F9CF1093290575
:102F1000C0E0D0E092D1C0E0D0E006C02196B096EB
:102F2000F53011F48AD1B9F4038503FDF7CF04FD20
:102F3000F5CF0081053E91F3002369F0EF93DF01A7
:102F4000ECEAF1E00591002341F01D910117D1F366
:102F5000FB2FEF91E3CF04E0CAC2FB2FEF91A28DCC
:102F6000B38DC489D589A0932B05B0932C05C0934C
:102F70002D05D0932E05A0933405B0933505C0934D
:102F80003605D0933705A48DB58DC68DD78D0A2F04
:102F90000B2B0C2B0D2B11F405E0A9C208E0AE158C
:102FA000BF05C007DF0510F005E0A1C28FEF91E07B
:102FB0002DD20AD21197CF09DF09009102050A9597
:102FC0000A23039500932F0500933805009102050D
:102FD00004D2A0933005B0933105C0933205D0934D
:102FE0003305A0933905B0933A05C0933B05D093C0
:102FF0003C05F0922A0550D3A0E0B4E055D3E4E4B8
:10300000F1E05ED3EFD248D3A0E0B5E04DD3EEE4DB
:10301000F1E056D3A0E0B0E147D301E014E430D3AF
:103020001FEFC098C09A1A95E1F7A0E0B0E13CD339
:10303000F0923F05F0924005F0924105F6D10093E1
:103040003E05E0E0F1E0A0913F05B0914005C09160
:103050004105A8D21196CF1D3196F330D1F7C79A0A
:10306000B1FDC798A0933F05B0934005C0934105BB
:10307000A03031F40B2F077019F402E014E400D3F0
:1030800000913E050023D1F6BBD214EF03E0F8D245
:1030900003D3A0E0B6E008D3E8E5F1E011D3A0E067
:1030A000B0E102D3A0913405B0913505C091360549
:1030B000D0913705A0932B05B0932C05C0932D0517
:1030C000D0932E050091380500932F05A091390566
:1030D000B0913A05C0913B05D0913C05A0933005D5
:1030E000B0933105C0933205D0933305F0922A0591
:1030F000F0924205F0924305F0923F05F0924005B0
:10310000F092410592D100933E05E0E0F1E0A091FC
:103110003F05B0914005C0914105A6D2119101171C
:1031200011F0E09242051196CF1DF330B1F7C79A26
:10313000B3FDC798A0933F05B0934005C0934105E8
:10314000A03081F40B2F077069F410914205112310
:1031500031F0E0924305F092420508E501C003E03A
:1031600014E48ED200913E05002361F6C79A94D2F2
:10317000A0E0B7E099D2EAE7F1E01091430511230E
:1031800011F4E2E6F1E09CD287D2A0E0B9E08CD263
:10319000E2E8F1E095D21698FFCF0FEF76C20FEF7D
:1031A000FDDF1A95E1F7089512E0F9DF16E00591C9
:1031B000F5DF1A95E1F710E20FEFF0DF0F3F11F4A2
:1031C0001A95D1F70895EF93FF93E0EAF1E0ECDF71
:1031D000E4DF06FD07C0AA0FBB1FCC1FDC2FCB2FDF
:1031E000BA2FAA2715E0DBDF01E5D8DF0D2FD6DFE8
:1031F0000C2FD4DF0B2FD2DF0A2FD0DF0FEFCEDF63
:103200008FEFD9DF8A9569F00E3FD9F7FF91EF91E3
:1032100080E092E0C2DF01930197E1F712E0BFDFA7
:10322000089502E064C1E0E0F1E0CDDF0895E0E060
:10323000F3E0C9DFE0E0F3E00895CF93DF93DE0130
:10324000C0E0D0E000E1C9D0AF93009102050F9338
:10325000C4D0009129050A950A1738F4CF91CF916F
:10326000DF91CF910FEF00230895C0912705D091F2
:1032700028050A2F0023A0912505B091260529F0E5
:103280000F9323D00F910A95D9F77CD00F900A9411
:103290000F910021A00FBF1DCF1DDF1DC8DFDF91E3
:1032A000CF91002708951FE000910005002319F435
:1032B000A73FB10708950A9519F4A73FBD050895E2
:1032C000A73FBD05CD05D107089500910005002356
:1032D00031F10A9571F0AA0FBB1FCC1FDD1F0A2F19
:1032E000AB2FBC2FCD2FDD2709D03196C191D081D6
:1032F0000895C0E0D0E00A2FAB2FBB270F93CF93E8
:10330000DF93EDE1F5E079D092DFDF91CF910F917E
:10331000E00FFF1DE00FFF1DA191B0810895FD0199
:10332000EE0FFF1FEA0FFB1FF695E7950A2FAF2F51
:10333000BB27CC27DD27A6950F93EF93FF93EDE1F5
:10334000F5E05BD074DFDF91CF91D170EC0FFD1F02
:10335000C191F53031F4CF93C0E0D0E0119667DF32
:10336000CF910F91B081AC2FC0E0D0E0069540F432
:10337000B695A795B695A795B695A795B695A79531
:10338000BF7008950D2F0C2B0B2B0A2B59F4E1E283
:10339000F5E0A0910705B0910805C0910905D0910D
:1033A0000A052BC01297CF09DF090091020504C05E
:1033B000AA0FBB1FCC1FDD1F0695D0F7EDE0F5E08F
:1033C0001CD0E1E1F5E019C0AB2FBC2FCD2FD0E030
:1033D00001E0D695C795B795A7950795D0F70895BD
:1033E00001910A1BA02F01910B0BB02F01910C0B27
:1033F000C02F00810D0BD02F08950191A00F0191D6
:10340000B01F0191C01F0081D01F0895A80FB91FE0
:10341000CF1DDF1D0895D8DFE7E0F5E0E1DF0A2FDB
:10342000007F0B2B0C2B0D2B089517E50FEF28D1E8
:10343000E0E3F5E001911191012B1191012B119124
:10344000012BE1F1A0912B05B0912C05C0912D0528
:10345000D0912E0597DF00912A05A00FBF1DCF1D2B
:10346000DF1DE1DEA0912B05B0912C05C0912D054B
:10347000D0912E0500912A05039500932A051091FD
:1034800002051017C9F4F0922A051FDFA0932B053F
:10349000B0932C05C0932D05D0932E05E0E3F5E005
:1034A00000810150019300810F09019300810F09F0
:1034B000019300810F0901930FEF0895A0912B054F
:1034C000B0912C05C0912D05D0912E055BDF0091A8
:1034D0002A05A00FBF1DCF1DDF1DA5DE00912A0507
:1034E000039500932A0510912F05011B0895009361
:1034F0003D051FEF1DBF10E11EBFCED0A0E0B4E020
:10350000D3D0EEEFF0E0DCD000913D05013021F4A6
:10351000EAE0F1E0D5D011C0023021F4E0E1F1E0C1
:10352000CFD01EC0033021F4ECE1F1E0C9D005C0DA
:10353000043039F4E0E2F1E0C3D0E6E2F1E0C0D0DB
:103540000FC0053039F4E0E2F1E0BAD0E2E3F1E097
:10355000B7D006C0E0E2F1E0B3D0EAE3F1E0B0D0EA
:10356000E0913D05C79805E0D5D0C79A05E0E1D0C8
:10357000EA95C1F791D0A0E0B6E096D0E2E8F1E09C
:103580009FD01698FFCF3CD000E940D014EF03E065
:1035900077D0A0E0B0E0C0E067D0E02FA1E064D039
:1035A000F02F2EC000EA32D014EF01E069D010EF06
:1035B0000A2F66D011EF0B2F63D012EF0C2F60D0C3
:1035C00013EF00815DD014EF05E05AD001E05DD02B
:1035D00003E05BD013EF54D058D01081012707FDD2
:1035E000FBCF089500E812D000E110D014EF03E003
:1035F00047D013EF45D0C79A48D0C79807FFFBCFF5
:1036000000EF04D013E11A95F1F708950F9314EF2A
:1036100001E036D010EF05E533D011EF05E530D0ED
:1036200013EF0AEA2DD014EF05E02AD001E02DD0E7
:1036300010EF0AEA25D011EF0AE222D013EF05E5D8
:103640001FD014EF05E01CD001E01FD010EF05E5FE
:1036500017D011EF05E514D013EF0F9111D014EF2F
:1036600005E00ED001E011C010EF0A2F09D011EFD4
:103670000B2F06D012EF0C2F03D013EF0FEF00C06B
:103680000F93C09A1FB903D00F91C0980FB9779BC1
:10369000FECF0FB1C09A0895E0EBF0E00591002352
:1036A00011F02FD0FBCF089510E2B19FBB27A00DE2
:1036B000B11D119710E40A2FE3DF11E40B2FE0CFC7
:1036C0000591002311F017D0FBCF0895005D07FF8F
:1036D0000053085E06FF0851045F05FF0C500A5FA7
:1036E00004FF06500F93029501D00F910F700A301E
:1036F00008F0095F005D0F931F9314E4C1DF1F9171
:103700000F911F9310919B0015FFFCCF00939C001D
:103710001F91089514E61E9807D01E9A05D01A9599
:10372000D1F70A95B9F7089584E695E00197F1F786
:1037300008954EE15EEFC895C895C895C89541506B
:0837400050400040C1F708955C
:00000001FF
